{
  "_format": "hh-sol-artifact-1",
  "contractName": "QuantumTicket",
  "sourceName": "contracts/EventTicket.sol",
  "abi": [
    {
      "inputs": [],
      "stateMutability": "nonpayable",
      "type": "constructor"
    },
    {
      "inputs": [
        {
          "internalType": "address",
          "name": "sender",
          "type": "address"
        },
        {
          "internalType": "uint256",
          "name": "tokenId",
          "type": "uint256"
        },
        {
          "internalType": "address",
          "name": "owner",
          "type": "address"
        }
      ],
      "name": "ERC721IncorrectOwner",
      "type": "error"
    },
    {
      "inputs": [
        {
          "internalType": "address",
          "name": "operator",
          "type": "address"
        },
        {
          "internalType": "uint256",
          "name": "tokenId",
          "type": "uint256"
        }
      ],
      "name": "ERC721InsufficientApproval",
      "type": "error"
    },
    {
      "inputs": [
        {
          "internalType": "address",
          "name": "approver",
          "type": "address"
        }
      ],
      "name": "ERC721InvalidApprover",
      "type": "error"
    },
    {
      "inputs": [
        {
          "internalType": "address",
          "name": "operator",
          "type": "address"
        }
      ],
      "name": "ERC721InvalidOperator",
      "type": "error"
    },
    {
      "inputs": [
        {
          "internalType": "address",
          "name": "owner",
          "type": "address"
        }
      ],
      "name": "ERC721InvalidOwner",
      "type": "error"
    },
    {
      "inputs": [
        {
          "internalType": "address",
          "name": "receiver",
          "type": "address"
        }
      ],
      "name": "ERC721InvalidReceiver",
      "type": "error"
    },
    {
      "inputs": [
        {
          "internalType": "address",
          "name": "sender",
          "type": "address"
        }
      ],
      "name": "ERC721InvalidSender",
      "type": "error"
    },
    {
      "inputs": [
        {
          "internalType": "uint256",
          "name": "tokenId",
          "type": "uint256"
        }
      ],
      "name": "ERC721NonexistentToken",
      "type": "error"
    },
    {
      "inputs": [
        {
          "internalType": "address",
          "name": "owner",
          "type": "address"
        }
      ],
      "name": "OwnableInvalidOwner",
      "type": "error"
    },
    {
      "inputs": [
        {
          "internalType": "address",
          "name": "account",
          "type": "address"
        }
      ],
      "name": "OwnableUnauthorizedAccount",
      "type": "error"
    },
    {
      "inputs": [],
      "name": "ReentrancyGuardReentrantCall",
      "type": "error"
    },
    {
      "anonymous": false,
      "inputs": [
        {
          "indexed": true,
          "internalType": "address",
          "name": "owner",
          "type": "address"
        },
        {
          "indexed": true,
          "internalType": "address",
          "name": "approved",
          "type": "address"
        },
        {
          "indexed": true,
          "internalType": "uint256",
          "name": "tokenId",
          "type": "uint256"
        }
      ],
      "name": "Approval",
      "type": "event"
    },
    {
      "anonymous": false,
      "inputs": [
        {
          "indexed": true,
          "internalType": "address",
          "name": "owner",
          "type": "address"
        },
        {
          "indexed": true,
          "internalType": "address",
          "name": "operator",
          "type": "address"
        },
        {
          "indexed": false,
          "internalType": "bool",
          "name": "approved",
          "type": "bool"
        }
      ],
      "name": "ApprovalForAll",
      "type": "event"
    },
    {
      "anonymous": false,
      "inputs": [
        {
          "indexed": false,
          "internalType": "uint256",
          "name": "_fromTokenId",
          "type": "uint256"
        },
        {
          "indexed": false,
          "internalType": "uint256",
          "name": "_toTokenId",
          "type": "uint256"
        }
      ],
      "name": "BatchMetadataUpdate",
      "type": "event"
    },
    {
      "anonymous": false,
      "inputs": [
        {
          "indexed": true,
          "internalType": "uint256",
          "name": "eventId",
          "type": "uint256"
        },
        {
          "indexed": false,
          "internalType": "string",
          "name": "eventName",
          "type": "string"
        },
        {
          "indexed": true,
          "internalType": "address",
          "name": "organizer",
          "type": "address"
        },
        {
          "indexed": false,
          "internalType": "uint256",
          "name": "ticketPrice",
          "type": "uint256"
        }
      ],
      "name": "EventCreated",
      "type": "event"
    },
    {
      "anonymous": false,
      "inputs": [
        {
          "indexed": true,
          "internalType": "uint256",
          "name": "eventId",
          "type": "uint256"
        }
      ],
      "name": "EventDeactivated",
      "type": "event"
    },
    {
      "anonymous": false,
      "inputs": [
        {
          "indexed": false,
          "internalType": "uint256",
          "name": "_tokenId",
          "type": "uint256"
        }
      ],
      "name": "MetadataUpdate",
      "type": "event"
    },
    {
      "anonymous": false,
      "inputs": [
        {
          "indexed": true,
          "internalType": "address",
          "name": "previousOwner",
          "type": "address"
        },
        {
          "indexed": true,
          "internalType": "address",
          "name": "newOwner",
          "type": "address"
        }
      ],
      "name": "OwnershipTransferred",
      "type": "event"
    },
    {
      "anonymous": false,
      "inputs": [
        {
          "indexed": true,
          "internalType": "address",
          "name": "to",
          "type": "address"
        },
        {
          "indexed": false,
          "internalType": "uint256",
          "name": "amount",
          "type": "uint256"
        }
      ],
      "name": "RefundIssued",
      "type": "event"
    },
    {
      "anonymous": false,
      "inputs": [
        {
          "indexed": true,
          "internalType": "address",
          "name": "to",
          "type": "address"
        },
        {
          "indexed": true,
          "internalType": "uint256",
          "name": "tokenId",
          "type": "uint256"
        },
        {
          "indexed": true,
          "internalType": "uint256",
          "name": "eventId",
          "type": "uint256"
        }
      ],
      "name": "TicketMinted",
      "type": "event"
    },
    {
      "anonymous": false,
      "inputs": [
        {
          "indexed": true,
          "internalType": "uint256",
          "name": "tokenId",
          "type": "uint256"
        },
        {
          "indexed": true,
          "internalType": "uint256",
          "name": "eventId",
          "type": "uint256"
        }
      ],
      "name": "TicketUsed",
      "type": "event"
    },
    {
      "anonymous": false,
      "inputs": [
        {
          "indexed": true,
          "internalType": "address",
          "name": "from",
          "type": "address"
        },
        {
          "indexed": true,
          "internalType": "address",
          "name": "to",
          "type": "address"
        },
        {
          "indexed": true,
          "internalType": "uint256",
          "name": "tokenId",
          "type": "uint256"
        }
      ],
      "name": "Transfer",
      "type": "event"
    },
    {
      "inputs": [],
      "name": "PLATFORM_FEE",
      "outputs": [
        {
          "internalType": "uint256",
          "name": "",
          "type": "uint256"
        }
      ],
      "stateMutability": "view",
      "type": "function"
    },
    {
      "inputs": [
        {
          "internalType": "address",
          "name": "to",
          "type": "address"
        },
        {
          "internalType": "uint256",
          "name": "tokenId",
          "type": "uint256"
        }
      ],
      "name": "approve",
      "outputs": [],
      "stateMutability": "nonpayable",
      "type": "function"
    },
    {
      "inputs": [
        {
          "internalType": "address",
          "name": "owner",
          "type": "address"
        }
      ],
      "name": "balanceOf",
      "outputs": [
        {
          "internalType": "uint256",
          "name": "",
          "type": "uint256"
        }
      ],
      "stateMutability": "view",
      "type": "function"
    },
    {
      "inputs": [
        {
          "internalType": "uint256",
          "name": "eventId",
          "type": "uint256"
        },
        {
          "internalType": "string",
          "name": "tokenURI",
          "type": "string"
        }
      ],
      "name": "buyTicket",
      "outputs": [
        {
          "internalType": "uint256",
          "name": "",
          "type": "uint256"
        }
      ],
      "stateMutability": "payable",
      "type": "function"
    },
    {
      "inputs": [
        {
          "internalType": "string",
          "name": "eventName",
          "type": "string"
        },
        {
          "internalType": "uint256",
          "name": "eventDate",
          "type": "uint256"
        },
        {
          "internalType": "string",
          "name": "venue",
          "type": "string"
        },
        {
          "internalType": "uint256",
          "name": "ticketPrice",
          "type": "uint256"
        },
        {
          "internalType": "uint256",
          "name": "maxTickets",
          "type": "uint256"
        },
        {
          "internalType": "string",
          "name": "metadataURI",
          "type": "string"
        }
      ],
      "name": "createEvent",
      "outputs": [
        {
          "internalType": "uint256",
          "name": "",
          "type": "uint256"
        }
      ],
      "stateMutability": "nonpayable",
      "type": "function"
    },
    {
      "inputs": [
        {
          "internalType": "uint256",
          "name": "eventId",
          "type": "uint256"
        }
      ],
      "name": "deactivateEvent",
      "outputs": [],
      "stateMutability": "nonpayable",
      "type": "function"
    },
    {
      "inputs": [
        {
          "internalType": "uint256",
          "name": "",
          "type": "uint256"
        }
      ],
      "name": "events",
      "outputs": [
        {
          "internalType": "uint256",
          "name": "eventId",
          "type": "uint256"
        },
        {
          "internalType": "string",
          "name": "eventName",
          "type": "string"
        },
        {
          "internalType": "uint256",
          "name": "eventDate",
          "type": "uint256"
        },
        {
          "internalType": "string",
          "name": "venue",
          "type": "string"
        },
        {
          "internalType": "uint256",
          "name": "ticketPrice",
          "type": "uint256"
        },
        {
          "internalType": "address",
          "name": "organizer",
          "type": "address"
        },
        {
          "internalType": "uint256",
          "name": "maxTickets",
          "type": "uint256"
        },
        {
          "internalType": "uint256",
          "name": "ticketsSold",
          "type": "uint256"
        },
        {
          "internalType": "bool",
          "name": "isActive",
          "type": "bool"
        },
        {
          "internalType": "string",
          "name": "metadataURI",
          "type": "string"
        }
      ],
      "stateMutability": "view",
      "type": "function"
    },
    {
      "inputs": [
        {
          "internalType": "uint256",
          "name": "tokenId",
          "type": "uint256"
        }
      ],
      "name": "getApproved",
      "outputs": [
        {
          "internalType": "address",
          "name": "",
          "type": "address"
        }
      ],
      "stateMutability": "view",
      "type": "function"
    },
    {
      "inputs": [
        {
          "internalType": "uint256",
          "name": "eventId",
          "type": "uint256"
        }
      ],
      "name": "getEventDetails",
      "outputs": [
        {
          "components": [
            {
              "internalType": "uint256",
              "name": "eventId",
              "type": "uint256"
            },
            {
              "internalType": "string",
              "name": "eventName",
              "type": "string"
            },
            {
              "internalType": "uint256",
              "name": "eventDate",
              "type": "uint256"
            },
            {
              "internalType": "string",
              "name": "venue",
              "type": "string"
            },
            {
              "internalType": "uint256",
              "name": "ticketPrice",
              "type": "uint256"
            },
            {
              "internalType": "address",
              "name": "organizer",
              "type": "address"
            },
            {
              "internalType": "uint256",
              "name": "maxTickets",
              "type": "uint256"
            },
            {
              "internalType": "uint256",
              "name": "ticketsSold",
              "type": "uint256"
            },
            {
              "internalType": "bool",
              "name": "isActive",
              "type": "bool"
            },
            {
              "internalType": "string",
              "name": "metadataURI",
              "type": "string"
            }
          ],
          "internalType": "struct QuantumTicket.Event",
          "name": "",
          "type": "tuple"
        }
      ],
      "stateMutability": "view",
      "type": "function"
    },
    {
      "inputs": [
        {
          "internalType": "uint256",
          "name": "tokenId",
          "type": "uint256"
        }
      ],
      "name": "getTicketDetails",
      "outputs": [
        {
          "internalType": "uint256",
          "name": "eventId",
          "type": "uint256"
        },
        {
          "internalType": "bool",
          "name": "isUsed",
          "type": "bool"
        },
        {
          "components": [
            {
              "internalType": "uint256",
              "name": "eventId",
              "type": "uint256"
            },
            {
              "internalType": "string",
              "name": "eventName",
              "type": "string"
            },
            {
              "internalType": "uint256",
              "name": "eventDate",
              "type": "uint256"
            },
            {
              "internalType": "string",
              "name": "venue",
              "type": "string"
            },
            {
              "internalType": "uint256",
              "name": "ticketPrice",
              "type": "uint256"
            },
            {
              "internalType": "address",
              "name": "organizer",
              "type": "address"
            },
            {
              "internalType": "uint256",
              "name": "maxTickets",
              "type": "uint256"
            },
            {
              "internalType": "uint256",
              "name": "ticketsSold",
              "type": "uint256"
            },
            {
              "internalType": "bool",
              "name": "isActive",
              "type": "bool"
            },
            {
              "internalType": "string",
              "name": "metadataURI",
              "type": "string"
            }
          ],
          "internalType": "struct QuantumTicket.Event",
          "name": "eventDetails",
          "type": "tuple"
        }
      ],
      "stateMutability": "view",
      "type": "function"
    },
    {
      "inputs": [],
      "name": "getTotalEvents",
      "outputs": [
        {
          "internalType": "uint256",
          "name": "",
          "type": "uint256"
        }
      ],
      "stateMutability": "view",
      "type": "function"
    },
    {
      "inputs": [],
      "name": "getTotalTickets",
      "outputs": [
        {
          "internalType": "uint256",
          "name": "",
          "type": "uint256"
        }
      ],
      "stateMutability": "view",
      "type": "function"
    },
    {
      "inputs": [
        {
          "internalType": "address",
          "name": "user",
          "type": "address"
        }
      ],
      "name": "getUserTickets",
      "outputs": [
        {
          "internalType": "uint256[]",
          "name": "",
          "type": "uint256[]"
        }
      ],
      "stateMutability": "view",
      "type": "function"
    },
    {
      "inputs": [
        {
          "internalType": "address",
          "name": "owner",
          "type": "address"
        },
        {
          "internalType": "address",
          "name": "operator",
          "type": "address"
        }
      ],
      "name": "isApprovedForAll",
      "outputs": [
        {
          "internalType": "bool",
          "name": "",
          "type": "bool"
        }
      ],
      "stateMutability": "view",
      "type": "function"
    },
    {
      "inputs": [],
      "name": "name",
      "outputs": [
        {
          "internalType": "string",
          "name": "",
          "type": "string"
        }
      ],
      "stateMutability": "view",
      "type": "function"
    },
    {
      "inputs": [],
      "name": "owner",
      "outputs": [
        {
          "internalType": "address",
          "name": "",
          "type": "address"
        }
      ],
      "stateMutability": "view",
      "type": "function"
    },
    {
      "inputs": [
        {
          "internalType": "uint256",
          "name": "tokenId",
          "type": "uint256"
        }
      ],
      "name": "ownerOf",
      "outputs": [
        {
          "internalType": "address",
          "name": "",
          "type": "address"
        }
      ],
      "stateMutability": "view",
      "type": "function"
    },
    {
      "inputs": [],
      "name": "renounceOwnership",
      "outputs": [],
      "stateMutability": "nonpayable",
      "type": "function"
    },
    {
      "inputs": [
        {
          "internalType": "address",
          "name": "from",
          "type": "address"
        },
        {
          "internalType": "address",
          "name": "to",
          "type": "address"
        },
        {
          "internalType": "uint256",
          "name": "tokenId",
          "type": "uint256"
        }
      ],
      "name": "safeTransferFrom",
      "outputs": [],
      "stateMutability": "nonpayable",
      "type": "function"
    },
    {
      "inputs": [
        {
          "internalType": "address",
          "name": "from",
          "type": "address"
        },
        {
          "internalType": "address",
          "name": "to",
          "type": "address"
        },
        {
          "internalType": "uint256",
          "name": "tokenId",
          "type": "uint256"
        },
        {
          "internalType": "bytes",
          "name": "data",
          "type": "bytes"
        }
      ],
      "name": "safeTransferFrom",
      "outputs": [],
      "stateMutability": "nonpayable",
      "type": "function"
    },
    {
      "inputs": [
        {
          "internalType": "address",
          "name": "operator",
          "type": "address"
        },
        {
          "internalType": "bool",
          "name": "approved",
          "type": "bool"
        }
      ],
      "name": "setApprovalForAll",
      "outputs": [],
      "stateMutability": "nonpayable",
      "type": "function"
    },
    {
      "inputs": [
        {
          "internalType": "bytes4",
          "name": "interfaceId",
          "type": "bytes4"
        }
      ],
      "name": "supportsInterface",
      "outputs": [
        {
          "internalType": "bool",
          "name": "",
          "type": "bool"
        }
      ],
      "stateMutability": "view",
      "type": "function"
    },
    {
      "inputs": [],
      "name": "symbol",
      "outputs": [
        {
          "internalType": "string",
          "name": "",
          "type": "string"
        }
      ],
      "stateMutability": "view",
      "type": "function"
    },
    {
      "inputs": [
        {
          "internalType": "uint256",
          "name": "",
          "type": "uint256"
        }
      ],
      "name": "tickets",
      "outputs": [
        {
          "internalType": "uint256",
          "name": "eventId",
          "type": "uint256"
        },
        {
          "internalType": "bool",
          "name": "isUsed",
          "type": "bool"
        }
      ],
      "stateMutability": "view",
      "type": "function"
    },
    {
      "inputs": [
        {
          "internalType": "uint256",
          "name": "tokenId",
          "type": "uint256"
        }
      ],
      "name": "tokenURI",
      "outputs": [
        {
          "internalType": "string",
          "name": "",
          "type": "string"
        }
      ],
      "stateMutability": "view",
      "type": "function"
    },
    {
      "inputs": [
        {
          "internalType": "address",
          "name": "from",
          "type": "address"
        },
        {
          "internalType": "address",
          "name": "to",
          "type": "address"
        },
        {
          "internalType": "uint256",
          "name": "tokenId",
          "type": "uint256"
        }
      ],
      "name": "transferFrom",
      "outputs": [],
      "stateMutability": "nonpayable",
      "type": "function"
    },
    {
      "inputs": [
        {
          "internalType": "address",
          "name": "newOwner",
          "type": "address"
        }
      ],
      "name": "transferOwnership",
      "outputs": [],
      "stateMutability": "nonpayable",
      "type": "function"
    },
    {
      "inputs": [
        {
          "internalType": "uint256",
          "name": "tokenId",
          "type": "uint256"
        }
      ],
      "name": "useTicket",
      "outputs": [],
      "stateMutability": "nonpayable",
      "type": "function"
    },
    {
      "inputs": [],
      "name": "withdrawPlatformFees",
      "outputs": [],
      "stateMutability": "nonpayable",
      "type": "function"
    }
  ],
  "bytecode": "0x60806040523480156200001157600080fd5b50336040518060400160405280600d81526020017f5175616e74756d5469636b6574000000000000000000000000000000000000008152506040518060400160405280600481526020017f51544b540000000000000000000000000000000000000000000000000000000081525081600090816200009091906200047a565b508060019081620000a291906200047a565b505050600073ffffffffffffffffffffffffffffffffffffffff168173ffffffffffffffffffffffffffffffffffffffff16036200011a5760006040517f1e4fbdf7000000000000000000000000000000000000000000000000000000008152600401620001119190620005a6565b60405180910390fd5b6200012b816200013a60201b60201c565b506001600881905550620005c3565b6000600760009054906101000a900473ffffffffffffffffffffffffffffffffffffffff16905081600760006101000a81548173ffffffffffffffffffffffffffffffffffffffff021916908373ffffffffffffffffffffffffffffffffffffffff1602179055508173ffffffffffffffffffffffffffffffffffffffff168173ffffffffffffffffffffffffffffffffffffffff167f8be0079c531659141344cd1fd0a4f28419497f9722a3daafe3b4186f6b6457e060405160405180910390a35050565b600081519050919050565b7f4e487b7100000000000000000000000000000000000000000000000000000000600052604160045260246000fd5b7f4e487b7100000000000000000000000000000000000000000000000000000000600052602260045260246000fd5b600060028204905060018216806200028257607f821691505b6020821081036200029857620002976200023a565b5b50919050565b60008190508160005260206000209050919050565b60006020601f8301049050919050565b600082821b905092915050565b600060088302620003027fffffffffffffffffffffffffffffffffffffffffffffffffffffffffffffffff82620002c3565b6200030e8683620002c3565b95508019841693508086168417925050509392505050565b6000819050919050565b6000819050919050565b60006200035b620003556200034f8462000326565b62000330565b62000326565b9050919050565b6000819050919050565b62000377836200033a565b6200038f620003868262000362565b848454620002d0565b825550505050565b600090565b620003a662000397565b620003b38184846200036c565b505050565b5b81811015620003db57620003cf6000826200039c565b600181019050620003b9565b5050565b601f8211156200042a57620003f4816200029e565b620003ff84620002b3565b810160208510156200040f578190505b620004276200041e85620002b3565b830182620003b8565b50505b505050565b600082821c905092915050565b60006200044f600019846008026200042f565b1980831691505092915050565b60006200046a83836200043c565b9150826002028217905092915050565b620004858262000200565b67ffffffffffffffff811115620004a157620004a06200020b565b5b620004ad825462000269565b620004ba828285620003df565b600060209050601f831160018114620004f25760008415620004dd578287015190505b620004e985826200045c565b86555062000559565b601f19841662000502866200029e565b60005b828110156200052c5784890151825560018201915060208501945060208101905062000505565b868310156200054c578489015162000548601f8916826200043c565b8355505b6001600288020188555050505b505050505050565b600073ffffffffffffffffffffffffffffffffffffffff82169050919050565b60006200058e8262000561565b9050919050565b620005a08162000581565b82525050565b6000602082019050620005bd600083018462000595565b92915050565b614c0d80620005d36000396000f3fe6080604052600436106101c25760003560e01c80636352211e116100f7578063a22cb46511610095578063e0f42a8f11610064578063e0f42a8f14610677578063e985e9c5146106b4578063ec38d5a0146106f1578063f2fde38b1461072e576101c2565b8063a22cb465146105d1578063b88d4fde146105fa578063c87b56dd14610623578063d0b7830b14610660576101c2565b80638da5cb5b116100d15780638da5cb5b14610522578063957a632e1461054d57806395d89b41146105765780639afb93cb146105a1576101c2565b80636352211e1461049157806370a08231146104ce578063715018a61461050b576101c2565b806323b872dd1161016457806334fbc9a11161013e57806334fbc9a1146103d457806342842e0e146103ff57806350b44712146104285780636160694014610466576101c2565b806323b872dd1461034357806324c141601461036c57806326606448146103ab576101c2565b806306fdde03116101a057806306fdde031461026c578063081812fc14610297578063095ea7b3146102d45780630b791430146102fd576101c2565b806301ffc9a7146101c75780630484a22f1461020457806306e8337f14610241575b600080fd5b3480156101d357600080fd5b506101ee60048036038101906101e991906133fb565b610757565b6040516101fb9190613443565b60405180910390f35b34801561021057600080fd5b5061022b600480360381019061022691906134bc565b610769565b60405161023891906135b1565b60405180910390f35b34801561024d57600080fd5b5061025661085c565b60405161026391906135e2565b60405180910390f35b34801561027857600080fd5b50610281610866565b60405161028e919061368d565b60405180910390f35b3480156102a357600080fd5b506102be60048036038101906102b991906136db565b6108f8565b6040516102cb9190613717565b60405180910390f35b3480156102e057600080fd5b506102fb60048036038101906102f69190613732565b610914565b005b34801561030957600080fd5b50610324600480360381019061031f91906136db565b61092a565b60405161033a9a99989796959493929190613772565b60405180910390f35b34801561034f57600080fd5b5061036a60048036038101906103659190613823565b610b43565b005b34801561037857600080fd5b50610393600480360381019061038e91906136db565b610c45565b6040516103a2939291906139c6565b60405180910390f35b3480156103b757600080fd5b506103d260048036038101906103cd91906136db565b610fa8565b005b3480156103e057600080fd5b506103e96111f2565b6040516103f691906135e2565b60405180910390f35b34801561040b57600080fd5b5061042660048036038101906104219190613823565b6111fc565b005b34801561043457600080fd5b5061044f600480360381019061044a91906136db565b61121c565b60405161045d929190613a04565b60405180910390f35b34801561047257600080fd5b5061047b61124d565b60405161048891906135e2565b60405180910390f35b34801561049d57600080fd5b506104b860048036038101906104b391906136db565b611257565b6040516104c59190613717565b60405180910390f35b3480156104da57600080fd5b506104f560048036038101906104f091906134bc565b611269565b60405161050291906135e2565b60405180910390f35b34801561051757600080fd5b50610520611323565b005b34801561052e57600080fd5b50610537611337565b6040516105449190613717565b60405180910390f35b34801561055957600080fd5b50610574600480360381019061056f91906136db565b611361565b005b34801561058257600080fd5b5061058b6114ac565b604051610598919061368d565b60405180910390f35b6105bb60048036038101906105b69190613b62565b61153e565b6040516105c891906135e2565b60405180910390f35b3480156105dd57600080fd5b506105f860048036038101906105f39190613bea565b6118fc565b005b34801561060657600080fd5b50610621600480360381019061061c9190613ccb565b611912565b005b34801561062f57600080fd5b5061064a600480360381019061064591906136db565b611937565b604051610657919061368d565b60405180910390f35b34801561066c57600080fd5b50610675611a4a565b005b34801561068357600080fd5b5061069e60048036038101906106999190613d4e565b611afb565b6040516106ab91906135e2565b60405180910390f35b3480156106c057600080fd5b506106db60048036038101906106d69190613e2f565b611e1b565b6040516106e89190613443565b60405180910390f35b3480156106fd57600080fd5b50610718600480360381019061071391906136db565b611eaf565b6040516107259190613e6f565b60405180910390f35b34801561073a57600080fd5b50610755600480360381019061075091906134bc565b61217c565b005b600061076282612202565b9050919050565b6060600061077683611269565b905060008167ffffffffffffffff81111561079457610793613a37565b5b6040519080825280602002602001820160405280156107c25781602001602082028036833780820191505090505b5090506000805b600954811015610850578573ffffffffffffffffffffffffffffffffffffffff166107f382612263565b73ffffffffffffffffffffffffffffffffffffffff160361083d578083838151811061082257610821613e91565b5b602002602001018181525050818061083990613eef565b9250505b808061084890613eef565b9150506107c9565b50819350505050919050565b6000600954905090565b60606000805461087590613f66565b80601f01602080910402602001604051908101604052809291908181526020018280546108a190613f66565b80156108ee5780601f106108c3576101008083540402835291602001916108ee565b820191906000526020600020905b8154815290600101906020018083116108d157829003601f168201915b5050505050905090565b6000610903826122a0565b5061090d82612328565b9050919050565b6109268282610921612365565b61236d565b5050565b600b60205280600052604060002060009150905080600001549080600101805461095390613f66565b80601f016020809104026020016040519081016040528092919081815260200182805461097f90613f66565b80156109cc5780601f106109a1576101008083540402835291602001916109cc565b820191906000526020600020905b8154815290600101906020018083116109af57829003601f168201915b5050505050908060020154908060030180546109e790613f66565b80601f0160208091040260200160405190810160405280929190818152602001828054610a1390613f66565b8015610a605780601f10610a3557610100808354040283529160200191610a60565b820191906000526020600020905b815481529060010190602001808311610a4357829003601f168201915b5050505050908060040154908060050160009054906101000a900473ffffffffffffffffffffffffffffffffffffffff16908060060154908060070154908060080160009054906101000a900460ff1690806009018054610ac090613f66565b80601f0160208091040260200160405190810160405280929190818152602001828054610aec90613f66565b8015610b395780601f10610b0e57610100808354040283529160200191610b39565b820191906000526020600020905b815481529060010190602001808311610b1c57829003601f168201915b505050505090508a565b600073ffffffffffffffffffffffffffffffffffffffff168273ffffffffffffffffffffffffffffffffffffffff1603610bb55760006040517f64a0ae92000000000000000000000000000000000000000000000000000000008152600401610bac9190613717565b60405180910390fd5b6000610bc98383610bc4612365565b61237f565b90508373ffffffffffffffffffffffffffffffffffffffff168173ffffffffffffffffffffffffffffffffffffffff1614610c3f578382826040517f64283d7b000000000000000000000000000000000000000000000000000000008152600401610c3693929190613f97565b60405180910390fd5b50505050565b600080610c50613324565b600073ffffffffffffffffffffffffffffffffffffffff16610c7185612263565b73ffffffffffffffffffffffffffffffffffffffff1603610cc7576040517f08c379a0000000000000000000000000000000000000000000000000000000008152600401610cbe9061401a565b60405180910390fd5b6000600c6000868152602001908152602001600020604051806040016040529081600082015481526020016001820160009054906101000a900460ff16151515158152505090506000600b6000836000015181526020019081526020016000206040518061014001604052908160008201548152602001600182018054610d4d90613f66565b80601f0160208091040260200160405190810160405280929190818152602001828054610d7990613f66565b8015610dc65780601f10610d9b57610100808354040283529160200191610dc6565b820191906000526020600020905b815481529060010190602001808311610da957829003601f168201915b5050505050815260200160028201548152602001600382018054610de990613f66565b80601f0160208091040260200160405190810160405280929190818152602001828054610e1590613f66565b8015610e625780601f10610e3757610100808354040283529160200191610e62565b820191906000526020600020905b815481529060010190602001808311610e4557829003601f168201915b50505050508152602001600482015481526020016005820160009054906101000a900473ffffffffffffffffffffffffffffffffffffffff1673ffffffffffffffffffffffffffffffffffffffff1673ffffffffffffffffffffffffffffffffffffffff16815260200160068201548152602001600782015481526020016008820160009054906101000a900460ff16151515158152602001600982018054610f0a90613f66565b80601f0160208091040260200160405190810160405280929190818152602001828054610f3690613f66565b8015610f835780601f10610f5857610100808354040283529160200191610f83565b820191906000526020600020905b815481529060010190602001808311610f6657829003601f168201915b5050505050815250509050816000015182602001518294509450945050509193909250565b600073ffffffffffffffffffffffffffffffffffffffff16610fc982612263565b73ffffffffffffffffffffffffffffffffffffffff160361101f576040517f08c379a00000000000000000000000000000000000000000000000000000000081526004016110169061401a565b60405180910390fd5b3373ffffffffffffffffffffffffffffffffffffffff1661103f82611257565b73ffffffffffffffffffffffffffffffffffffffff16148061109457503373ffffffffffffffffffffffffffffffffffffffff1661107c826108f8565b73ffffffffffffffffffffffffffffffffffffffff16145b6110d3576040517f08c379a00000000000000000000000000000000000000000000000000000000081526004016110ca90614086565b60405180910390fd5b6000600c600083815260200190815260200160002090506000600b60008360000154815260200190815260200160002090508160010160009054906101000a900460ff1615611157576040517f08c379a000000000000000000000000000000000000000000000000000000000815260040161114e906140f2565b60405180910390fd5b806002015442101561119e576040517f08c379a00000000000000000000000000000000000000000000000000000000081526004016111959061415e565b60405180910390fd5b60018260010160006101000a81548160ff0219169083151502179055508160000154837fad0a02848182e7d3a9bb0ae2cc919bdef92f9da6b0a45ced3656cf5443212ede60405160405180910390a3505050565b655af3107a400081565b61121783838360405180602001604052806000815250611912565b505050565b600c6020528060005260406000206000915090508060000154908060010160009054906101000a900460ff16905082565b6000600a54905090565b6000611262826122a0565b9050919050565b60008073ffffffffffffffffffffffffffffffffffffffff168273ffffffffffffffffffffffffffffffffffffffff16036112dc5760006040517f89c62b640000000000000000000000000000000000000000000000000000000081526004016112d39190613717565b60405180910390fd5b600360008373ffffffffffffffffffffffffffffffffffffffff1673ffffffffffffffffffffffffffffffffffffffff168152602001908152602001600020549050919050565b61132b612599565b6113356000612620565b565b6000600760009054906101000a900473ffffffffffffffffffffffffffffffffffffffff16905090565b80600a5481106113a6576040517f08c379a000000000000000000000000000000000000000000000000000000000815260040161139d906141ca565b60405180910390fd5b813373ffffffffffffffffffffffffffffffffffffffff16600b600083815260200190815260200160002060050160009054906101000a900473ffffffffffffffffffffffffffffffffffffffff1673ffffffffffffffffffffffffffffffffffffffff161461144b576040517f08c379a000000000000000000000000000000000000000000000000000000000815260040161144290614236565b60405180910390fd5b6000600b600085815260200190815260200160002060080160006101000a81548160ff021916908315150217905550827f9bec5b77a290657edefc9defa075c60a874e90f7cc9496853ca9962d58a4ffdd60405160405180910390a2505050565b6060600180546114bb90613f66565b80601f01602080910402602001604051908101604052809291908181526020018280546114e790613f66565b80156115345780601f1061150957610100808354040283529160200191611534565b820191906000526020600020905b81548152906001019060200180831161151757829003601f168201915b5050505050905090565b600082600a548110611585576040517f08c379a000000000000000000000000000000000000000000000000000000000815260040161157c906141ca565b60405180910390fd5b61158d6126e6565b6000600b600086815260200190815260200160002090508060080160009054906101000a900460ff166115f5576040517f08c379a00000000000000000000000000000000000000000000000000000000081526004016115ec906142a2565b60405180910390fd5b806006015481600701541061163f576040517f08c379a00000000000000000000000000000000000000000000000000000000081526004016116369061430e565b60405180910390fd5b42816002015411611685576040517f08c379a000000000000000000000000000000000000000000000000000000000815260040161167c9061437a565b60405180910390fd5b6000655af3107a4000826004015461169d919061439a565b9050803410156116e2576040517f08c379a00000000000000000000000000000000000000000000000000000000081526004016116d990614440565b60405180910390fd5b600081346116f09190614460565b90506000811115611791573373ffffffffffffffffffffffffffffffffffffffff166108fc829081150290604051600060405180830381858888f19350505050158015611741573d6000803e3d6000fd5b503373ffffffffffffffffffffffffffffffffffffffff167fa171b6942063c6f2800ce40a780edce37baa2b618571b11eedd1e69e626e7d768260405161178891906135e2565b60405180910390a25b8260050160009054906101000a900473ffffffffffffffffffffffffffffffffffffffff1673ffffffffffffffffffffffffffffffffffffffff166108fc84600401549081150290604051600060405180830381858888f193505050501580156117ff573d6000803e3d6000fd5b5060006009600081548092919061181590613eef565b919050559050611825338261272c565b61182f818861274a565b604051806040016040528089815260200160001515815250600c60008381526020019081526020016000206000820151816000015560208201518160010160006101000a81548160ff02191690831515021790555090505083600701600081548092919061189c90613eef565b919050555087813373ffffffffffffffffffffffffffffffffffffffff167fcbea9c23945e351434f7ae5b1a435091cc278dd9dd0eba4c04203674014ca7d760405160405180910390a4809550505050506118f56127a6565b5092915050565b61190e611907612365565b83836127b0565b5050565b61191d848484610b43565b611931611928612365565b8585858561291f565b50505050565b6060611942826122a0565b50600060066000848152602001908152602001600020805461196390613f66565b80601f016020809104026020016040519081016040528092919081815260200182805461198f90613f66565b80156119dc5780601f106119b1576101008083540402835291602001916119dc565b820191906000526020600020905b8154815290600101906020018083116119bf57829003601f168201915b5050505050905060006119ed612ad0565b90506000815103611a02578192505050611a45565b600082511115611a37578082604051602001611a1f9291906144d0565b60405160208183030381529060405292505050611a45565b611a4084612ae7565b925050505b919050565b611a52612599565b611a5a6126e6565b600047905060008111611aa2576040517f08c379a0000000000000000000000000000000000000000000000000000000008152600401611a9990614540565b60405180910390fd5b611aaa611337565b73ffffffffffffffffffffffffffffffffffffffff166108fc829081150290604051600060405180830381858888f19350505050158015611aef573d6000803e3d6000fd5b5050611af96127a6565b565b600080875111611b40576040517f08c379a0000000000000000000000000000000000000000000000000000000008152600401611b37906145ac565b60405180910390fd5b428611611b82576040517f08c379a0000000000000000000000000000000000000000000000000000000008152600401611b7990614618565b60405180910390fd5b60008411611bc5576040517f08c379a0000000000000000000000000000000000000000000000000000000008152600401611bbc906146aa565b60405180910390fd5b60008311611c08576040517f08c379a0000000000000000000000000000000000000000000000000000000008152600401611bff9061473c565b60405180910390fd5b620186a0831115611c4e576040517f08c379a0000000000000000000000000000000000000000000000000000000008152600401611c45906147ce565b60405180910390fd5b6000600a6000815480929190611c6390613eef565b9190505590506040518061014001604052808281526020018981526020018881526020018781526020018681526020013373ffffffffffffffffffffffffffffffffffffffff1681526020018581526020016000815260200160011515815260200184815250600b6000838152602001908152602001600020600082015181600001556020820151816001019081611cfb919061499a565b50604082015181600201556060820151816003019081611d1b919061499a565b506080820151816004015560a08201518160050160006101000a81548173ffffffffffffffffffffffffffffffffffffffff021916908373ffffffffffffffffffffffffffffffffffffffff16021790555060c0820151816006015560e082015181600701556101008201518160080160006101000a81548160ff021916908315150217905550610120820151816009019081611db8919061499a565b509050503373ffffffffffffffffffffffffffffffffffffffff16817fad389ee79ceb9d0e3a1739d75d42c8727ca5946b701beaa8ef2801b04d7d7a578a88604051611e05929190614a6c565b60405180910390a3809150509695505050505050565b6000600560008473ffffffffffffffffffffffffffffffffffffffff1673ffffffffffffffffffffffffffffffffffffffff16815260200190815260200160002060008373ffffffffffffffffffffffffffffffffffffffff1673ffffffffffffffffffffffffffffffffffffffff16815260200190815260200160002060009054906101000a900460ff16905092915050565b611eb7613324565b81600a548110611efc576040517f08c379a0000000000000000000000000000000000000000000000000000000008152600401611ef3906141ca565b60405180910390fd5b600b60008481526020019081526020016000206040518061014001604052908160008201548152602001600182018054611f3590613f66565b80601f0160208091040260200160405190810160405280929190818152602001828054611f6190613f66565b8015611fae5780601f10611f8357610100808354040283529160200191611fae565b820191906000526020600020905b815481529060010190602001808311611f9157829003601f168201915b5050505050815260200160028201548152602001600382018054611fd190613f66565b80601f0160208091040260200160405190810160405280929190818152602001828054611ffd90613f66565b801561204a5780601f1061201f5761010080835404028352916020019161204a565b820191906000526020600020905b81548152906001019060200180831161202d57829003601f168201915b50505050508152602001600482015481526020016005820160009054906101000a900473ffffffffffffffffffffffffffffffffffffffff1673ffffffffffffffffffffffffffffffffffffffff1673ffffffffffffffffffffffffffffffffffffffff16815260200160068201548152602001600782015481526020016008820160009054906101000a900460ff161515151581526020016009820180546120f290613f66565b80601f016020809104026020016040519081016040528092919081815260200182805461211e90613f66565b801561216b5780601f106121405761010080835404028352916020019161216b565b820191906000526020600020905b81548152906001019060200180831161214e57829003601f168201915b505050505081525050915050919050565b612184612599565b600073ffffffffffffffffffffffffffffffffffffffff168173ffffffffffffffffffffffffffffffffffffffff16036121f65760006040517f1e4fbdf70000000000000000000000000000000000000000000000000000000081526004016121ed9190613717565b60405180910390fd5b6121ff81612620565b50565b6000634906490660e01b7bffffffffffffffffffffffffffffffffffffffffffffffffffffffff1916827bffffffffffffffffffffffffffffffffffffffffffffffffffffffff1916148061225c575061225b82612b50565b5b9050919050565b60006002600083815260200190815260200160002060009054906101000a900473ffffffffffffffffffffffffffffffffffffffff169050919050565b6000806122ac83612263565b9050600073ffffffffffffffffffffffffffffffffffffffff168173ffffffffffffffffffffffffffffffffffffffff160361231f57826040517f7e27328900000000000000000000000000000000000000000000000000000000815260040161231691906135e2565b60405180910390fd5b80915050919050565b60006004600083815260200190815260200160002060009054906101000a900473ffffffffffffffffffffffffffffffffffffffff169050919050565b600033905090565b61237a8383836001612c32565b505050565b60008061238b84612263565b9050600073ffffffffffffffffffffffffffffffffffffffff168373ffffffffffffffffffffffffffffffffffffffff16146123cd576123cc818486612df7565b5b600073ffffffffffffffffffffffffffffffffffffffff168173ffffffffffffffffffffffffffffffffffffffff161461245e5761240f600085600080612c32565b6001600360008373ffffffffffffffffffffffffffffffffffffffff1673ffffffffffffffffffffffffffffffffffffffff168152602001908152602001600020600082825403925050819055505b600073ffffffffffffffffffffffffffffffffffffffff168573ffffffffffffffffffffffffffffffffffffffff16146124e1576001600360008773ffffffffffffffffffffffffffffffffffffffff1673ffffffffffffffffffffffffffffffffffffffff168152602001908152602001600020600082825401925050819055505b846002600086815260200190815260200160002060006101000a81548173ffffffffffffffffffffffffffffffffffffffff021916908373ffffffffffffffffffffffffffffffffffffffff160217905550838573ffffffffffffffffffffffffffffffffffffffff168273ffffffffffffffffffffffffffffffffffffffff167fddf252ad1be2c89b69c2b068fc378daa952ba7f163c4a11628f55a4df523b3ef60405160405180910390a4809150509392505050565b6125a1612365565b73ffffffffffffffffffffffffffffffffffffffff166125bf611337565b73ffffffffffffffffffffffffffffffffffffffff161461261e576125e2612365565b6040517f118cdaa70000000000000000000000000000000000000000000000000000000081526004016126159190613717565b60405180910390fd5b565b6000600760009054906101000a900473ffffffffffffffffffffffffffffffffffffffff16905081600760006101000a81548173ffffffffffffffffffffffffffffffffffffffff021916908373ffffffffffffffffffffffffffffffffffffffff1602179055508173ffffffffffffffffffffffffffffffffffffffff168173ffffffffffffffffffffffffffffffffffffffff167f8be0079c531659141344cd1fd0a4f28419497f9722a3daafe3b4186f6b6457e060405160405180910390a35050565b600260085403612722576040517f3ee5aeb500000000000000000000000000000000000000000000000000000000815260040160405180910390fd5b6002600881905550565b612746828260405180602001604052806000815250612ebb565b5050565b8060066000848152602001908152602001600020908161276a919061499a565b507ff8e1a15aba9398e019f0b49df1a4fde98ee17ae345cb5f6b5e2c27f5033e8ce78260405161279a91906135e2565b60405180910390a15050565b6001600881905550565b600073ffffffffffffffffffffffffffffffffffffffff168273ffffffffffffffffffffffffffffffffffffffff160361282157816040517f5b08ba180000000000000000000000000000000000000000000000000000000081526004016128189190613717565b60405180910390fd5b80600560008573ffffffffffffffffffffffffffffffffffffffff1673ffffffffffffffffffffffffffffffffffffffff16815260200190815260200160002060008473ffffffffffffffffffffffffffffffffffffffff1673ffffffffffffffffffffffffffffffffffffffff16815260200190815260200160002060006101000a81548160ff0219169083151502179055508173ffffffffffffffffffffffffffffffffffffffff168373ffffffffffffffffffffffffffffffffffffffff167f17307eab39ab6107e8899845ad3d59bd9653f200f220920489ca2b5937696c31836040516129129190613443565b60405180910390a3505050565b60008373ffffffffffffffffffffffffffffffffffffffff163b1115612ac9578273ffffffffffffffffffffffffffffffffffffffff1663150b7a02868685856040518563ffffffff1660e01b815260040161297e9493929190614af1565b6020604051808303816000875af19250505080156129ba57506040513d601f19601f820116820180604052508101906129b79190614b52565b60015b612a3e573d80600081146129ea576040519150601f19603f3d011682016040523d82523d6000602084013e6129ef565b606091505b506000815103612a3657836040517f64a0ae92000000000000000000000000000000000000000000000000000000008152600401612a2d9190613717565b60405180910390fd5b805181602001fd5b63150b7a0260e01b7bffffffffffffffffffffffffffffffffffffffffffffffffffffffff1916817bffffffffffffffffffffffffffffffffffffffffffffffffffffffff191614612ac757836040517f64a0ae92000000000000000000000000000000000000000000000000000000008152600401612abe9190613717565b60405180910390fd5b505b5050505050565b606060405180602001604052806000815250905090565b6060612af2826122a0565b506000612afd612ad0565b90506000815111612b1d5760405180602001604052806000815250612b48565b80612b2784612edf565b604051602001612b389291906144d0565b6040516020818303038152906040525b915050919050565b60007f80ac58cd000000000000000000000000000000000000000000000000000000007bffffffffffffffffffffffffffffffffffffffffffffffffffffffff1916827bffffffffffffffffffffffffffffffffffffffffffffffffffffffff19161480612c1b57507f5b5e139f000000000000000000000000000000000000000000000000000000007bffffffffffffffffffffffffffffffffffffffffffffffffffffffff1916827bffffffffffffffffffffffffffffffffffffffffffffffffffffffff1916145b80612c2b5750612c2a82612fad565b5b9050919050565b8080612c6b5750600073ffffffffffffffffffffffffffffffffffffffff168273ffffffffffffffffffffffffffffffffffffffff1614155b15612d9f576000612c7b846122a0565b9050600073ffffffffffffffffffffffffffffffffffffffff168373ffffffffffffffffffffffffffffffffffffffff1614158015612ce657508273ffffffffffffffffffffffffffffffffffffffff168173ffffffffffffffffffffffffffffffffffffffff1614155b8015612cf95750612cf78184611e1b565b155b15612d3b57826040517fa9fbf51f000000000000000000000000000000000000000000000000000000008152600401612d329190613717565b60405180910390fd5b8115612d9d57838573ffffffffffffffffffffffffffffffffffffffff168273ffffffffffffffffffffffffffffffffffffffff167f8c5be1e5ebec7d5bd14f71427d1e84f3dd0314c0f7b2291e5b200ac8c7c3b92560405160405180910390a45b505b836004600085815260200190815260200160002060006101000a81548173ffffffffffffffffffffffffffffffffffffffff021916908373ffffffffffffffffffffffffffffffffffffffff16021790555050505050565b612e02838383613017565b612eb657600073ffffffffffffffffffffffffffffffffffffffff168373ffffffffffffffffffffffffffffffffffffffff1603612e7757806040517f7e273289000000000000000000000000000000000000000000000000000000008152600401612e6e91906135e2565b60405180910390fd5b81816040517f177e802f000000000000000000000000000000000000000000000000000000008152600401612ead929190614b7f565b60405180910390fd5b505050565b612ec583836130d8565b612eda612ed0612365565b600085858561291f565b505050565b606060006001612eee846131d1565b01905060008167ffffffffffffffff811115612f0d57612f0c613a37565b5b6040519080825280601f01601f191660200182016040528015612f3f5781602001600182028036833780820191505090505b509050600082602001820190505b600115612fa2578080600190039150507f3031323334353637383961626364656600000000000000000000000000000000600a86061a8153600a8581612f9657612f95614ba8565b5b04945060008503612f4d575b819350505050919050565b60007f01ffc9a7000000000000000000000000000000000000000000000000000000007bffffffffffffffffffffffffffffffffffffffffffffffffffffffff1916827bffffffffffffffffffffffffffffffffffffffffffffffffffffffff1916149050919050565b60008073ffffffffffffffffffffffffffffffffffffffff168373ffffffffffffffffffffffffffffffffffffffff16141580156130cf57508273ffffffffffffffffffffffffffffffffffffffff168473ffffffffffffffffffffffffffffffffffffffff161480613090575061308f8484611e1b565b5b806130ce57508273ffffffffffffffffffffffffffffffffffffffff166130b683612328565b73ffffffffffffffffffffffffffffffffffffffff16145b5b90509392505050565b600073ffffffffffffffffffffffffffffffffffffffff168273ffffffffffffffffffffffffffffffffffffffff160361314a5760006040517f64a0ae920000000000000000000000000000000000000000000000000000000081526004016131419190613717565b60405180910390fd5b60006131588383600061237f565b9050600073ffffffffffffffffffffffffffffffffffffffff168173ffffffffffffffffffffffffffffffffffffffff16146131cc5760006040517f73c6ac6e0000000000000000000000000000000000000000000000000000000081526004016131c39190613717565b60405180910390fd5b505050565b600080600090507a184f03e93ff9f4daa797ed6e38ed64bf6a1f010000000000000000831061322f577a184f03e93ff9f4daa797ed6e38ed64bf6a1f010000000000000000838161322557613224614ba8565b5b0492506040810190505b6d04ee2d6d415b85acef8100000000831061326c576d04ee2d6d415b85acef8100000000838161326257613261614ba8565b5b0492506020810190505b662386f26fc10000831061329b57662386f26fc10000838161329157613290614ba8565b5b0492506010810190505b6305f5e10083106132c4576305f5e10083816132ba576132b9614ba8565b5b0492506008810190505b61271083106132e95761271083816132df576132de614ba8565b5b0492506004810190505b6064831061330c576064838161330257613301614ba8565b5b0492506002810190505b600a831061331b576001810190505b80915050919050565b6040518061014001604052806000815260200160608152602001600081526020016060815260200160008152602001600073ffffffffffffffffffffffffffffffffffffffff1681526020016000815260200160008152602001600015158152602001606081525090565b6000604051905090565b600080fd5b600080fd5b60007fffffffff0000000000000000000000000000000000000000000000000000000082169050919050565b6133d8816133a3565b81146133e357600080fd5b50565b6000813590506133f5816133cf565b92915050565b60006020828403121561341157613410613399565b5b600061341f848285016133e6565b91505092915050565b60008115159050919050565b61343d81613428565b82525050565b60006020820190506134586000830184613434565b92915050565b600073ffffffffffffffffffffffffffffffffffffffff82169050919050565b60006134898261345e565b9050919050565b6134998161347e565b81146134a457600080fd5b50565b6000813590506134b681613490565b92915050565b6000602082840312156134d2576134d1613399565b5b60006134e0848285016134a7565b91505092915050565b600081519050919050565b600082825260208201905092915050565b6000819050602082019050919050565b6000819050919050565b61352881613515565b82525050565b600061353a838361351f565b60208301905092915050565b6000602082019050919050565b600061355e826134e9565b61356881856134f4565b935061357383613505565b8060005b838110156135a457815161358b888261352e565b975061359683613546565b925050600181019050613577565b5085935050505092915050565b600060208201905081810360008301526135cb8184613553565b905092915050565b6135dc81613515565b82525050565b60006020820190506135f760008301846135d3565b92915050565b600081519050919050565b600082825260208201905092915050565b60005b8381101561363757808201518184015260208101905061361c565b60008484015250505050565b6000601f19601f8301169050919050565b600061365f826135fd565b6136698185613608565b9350613679818560208601613619565b61368281613643565b840191505092915050565b600060208201905081810360008301526136a78184613654565b905092915050565b6136b881613515565b81146136c357600080fd5b50565b6000813590506136d5816136af565b92915050565b6000602082840312156136f1576136f0613399565b5b60006136ff848285016136c6565b91505092915050565b6137118161347e565b82525050565b600060208201905061372c6000830184613708565b92915050565b6000806040838503121561374957613748613399565b5b6000613757858286016134a7565b9250506020613768858286016136c6565b9150509250929050565b600061014082019050613788600083018d6135d3565b818103602083015261379a818c613654565b90506137a9604083018b6135d3565b81810360608301526137bb818a613654565b90506137ca60808301896135d3565b6137d760a0830188613708565b6137e460c08301876135d3565b6137f160e08301866135d3565b6137ff610100830185613434565b8181036101208301526138128184613654565b90509b9a5050505050505050505050565b60008060006060848603121561383c5761383b613399565b5b600061384a868287016134a7565b935050602061385b868287016134a7565b925050604061386c868287016136c6565b9150509250925092565b600082825260208201905092915050565b6000613892826135fd565b61389c8185613876565b93506138ac818560208601613619565b6138b581613643565b840191505092915050565b6138c98161347e565b82525050565b6138d881613428565b82525050565b6000610140830160008301516138f7600086018261351f565b506020830151848203602086015261390f8282613887565b9150506040830151613924604086018261351f565b506060830151848203606086015261393c8282613887565b9150506080830151613951608086018261351f565b5060a083015161396460a08601826138c0565b5060c083015161397760c086018261351f565b5060e083015161398a60e086018261351f565b5061010083015161399f6101008601826138cf565b506101208301518482036101208601526139b98282613887565b9150508091505092915050565b60006060820190506139db60008301866135d3565b6139e86020830185613434565b81810360408301526139fa81846138de565b9050949350505050565b6000604082019050613a1960008301856135d3565b613a266020830184613434565b9392505050565b600080fd5b600080fd5b7f4e487b7100000000000000000000000000000000000000000000000000000000600052604160045260246000fd5b613a6f82613643565b810181811067ffffffffffffffff82111715613a8e57613a8d613a37565b5b80604052505050565b6000613aa161338f565b9050613aad8282613a66565b919050565b600067ffffffffffffffff821115613acd57613acc613a37565b5b613ad682613643565b9050602081019050919050565b82818337600083830152505050565b6000613b05613b0084613ab2565b613a97565b905082815260208101848484011115613b2157613b20613a32565b5b613b2c848285613ae3565b509392505050565b600082601f830112613b4957613b48613a2d565b5b8135613b59848260208601613af2565b91505092915050565b60008060408385031215613b7957613b78613399565b5b6000613b87858286016136c6565b925050602083013567ffffffffffffffff811115613ba857613ba761339e565b5b613bb485828601613b34565b9150509250929050565b613bc781613428565b8114613bd257600080fd5b50565b600081359050613be481613bbe565b92915050565b60008060408385031215613c0157613c00613399565b5b6000613c0f858286016134a7565b9250506020613c2085828601613bd5565b9150509250929050565b600067ffffffffffffffff821115613c4557613c44613a37565b5b613c4e82613643565b9050602081019050919050565b6000613c6e613c6984613c2a565b613a97565b905082815260208101848484011115613c8a57613c89613a32565b5b613c95848285613ae3565b509392505050565b600082601f830112613cb257613cb1613a2d565b5b8135613cc2848260208601613c5b565b91505092915050565b60008060008060808587031215613ce557613ce4613399565b5b6000613cf3878288016134a7565b9450506020613d04878288016134a7565b9350506040613d15878288016136c6565b925050606085013567ffffffffffffffff811115613d3657613d3561339e565b5b613d4287828801613c9d565b91505092959194509250565b60008060008060008060c08789031215613d6b57613d6a613399565b5b600087013567ffffffffffffffff811115613d8957613d8861339e565b5b613d9589828a01613b34565b9650506020613da689828a016136c6565b955050604087013567ffffffffffffffff811115613dc757613dc661339e565b5b613dd389828a01613b34565b9450506060613de489828a016136c6565b9350506080613df589828a016136c6565b92505060a087013567ffffffffffffffff811115613e1657613e1561339e565b5b613e2289828a01613b34565b9150509295509295509295565b60008060408385031215613e4657613e45613399565b5b6000613e54858286016134a7565b9250506020613e65858286016134a7565b9150509250929050565b60006020820190508181036000830152613e8981846138de565b905092915050565b7f4e487b7100000000000000000000000000000000000000000000000000000000600052603260045260246000fd5b7f4e487b7100000000000000000000000000000000000000000000000000000000600052601160045260246000fd5b6000613efa82613515565b91507fffffffffffffffffffffffffffffffffffffffffffffffffffffffffffffffff8203613f2c57613f2b613ec0565b5b600182019050919050565b7f4e487b7100000000000000000000000000000000000000000000000000000000600052602260045260246000fd5b60006002820490506001821680613f7e57607f821691505b602082108103613f9157613f90613f37565b5b50919050565b6000606082019050613fac6000830186613708565b613fb960208301856135d3565b613fc66040830184613708565b949350505050565b7f5469636b657420646f6573206e6f742065786973740000000000000000000000600082015250565b6000614004601583613608565b915061400f82613fce565b602082019050919050565b6000602082019050818103600083015261403381613ff7565b9050919050565b7f4e6f74207469636b6574206f776e6572206f7220617070726f76656400000000600082015250565b6000614070601c83613608565b915061407b8261403a565b602082019050919050565b6000602082019050818103600083015261409f81614063565b9050919050565b7f5469636b657420616c7265616479207573656400000000000000000000000000600082015250565b60006140dc601383613608565b91506140e7826140a6565b602082019050919050565b6000602082019050818103600083015261410b816140cf565b9050919050565b7f4576656e7420686173206e6f7420737461727465642079657400000000000000600082015250565b6000614148601983613608565b915061415382614112565b602082019050919050565b600060208201905081810360008301526141778161413b565b9050919050565b7f4576656e7420646f6573206e6f74206578697374000000000000000000000000600082015250565b60006141b4601483613608565b91506141bf8261417e565b602082019050919050565b600060208201905081810360008301526141e3816141a7565b9050919050565b7f4e6f74206576656e74206f7267616e697a657200000000000000000000000000600082015250565b6000614220601383613608565b915061422b826141ea565b602082019050919050565b6000602082019050818103600083015261424f81614213565b9050919050565b7f4576656e74206973206e6f742061637469766500000000000000000000000000600082015250565b600061428c601383613608565b915061429782614256565b602082019050919050565b600060208201905081810360008301526142bb8161427f565b9050919050565b7f4576656e7420697320736f6c64206f7574000000000000000000000000000000600082015250565b60006142f8601183613608565b9150614303826142c2565b602082019050919050565b60006020820190508181036000830152614327816142eb565b9050919050565b7f4576656e742068617320616c7265616479207061737365640000000000000000600082015250565b6000614364601883613608565b915061436f8261432e565b602082019050919050565b6000602082019050818103600083015261439381614357565b9050919050565b60006143a582613515565b91506143b083613515565b92508282019050808211156143c8576143c7613ec0565b5b92915050565b7f496e73756666696369656e74207061796d656e7420666f72207469636b65742060008201527f616e6420706c6174666f726d2066656500000000000000000000000000000000602082015250565b600061442a603083613608565b9150614435826143ce565b604082019050919050565b600060208201905081810360008301526144598161441d565b9050919050565b600061446b82613515565b915061447683613515565b925082820390508181111561448e5761448d613ec0565b5b92915050565b600081905092915050565b60006144aa826135fd565b6144b48185614494565b93506144c4818560208601613619565b80840191505092915050565b60006144dc828561449f565b91506144e8828461449f565b91508190509392505050565b7f4e6f20706c6174666f726d206665657320746f20776974686472617700000000600082015250565b600061452a601c83613608565b9150614535826144f4565b602082019050919050565b600060208201905081810360008301526145598161451d565b9050919050565b7f4576656e74206e616d652063616e6e6f7420626520656d707479000000000000600082015250565b6000614596601a83613608565b91506145a182614560565b602082019050919050565b600060208201905081810360008301526145c581614589565b9050919050565b7f4576656e742064617465206d75737420626520696e2074686520667574757265600082015250565b6000614602602083613608565b915061460d826145cc565b602082019050919050565b60006020820190508181036000830152614631816145f5565b9050919050565b7f5469636b6574207072696365206d75737420626520677265617465722074686160008201527f6e20300000000000000000000000000000000000000000000000000000000000602082015250565b6000614694602383613608565b915061469f82614638565b604082019050919050565b600060208201905081810360008301526146c381614687565b9050919050565b7f4d6178207469636b657473206d7573742062652067726561746572207468616e60008201527f2030000000000000000000000000000000000000000000000000000000000000602082015250565b6000614726602283613608565b9150614731826146ca565b604082019050919050565b6000602082019050818103600083015261475581614719565b9050919050565b7f4d6178207469636b6574732063616e6e6f7420657863656564203130302c303060008201527f3000000000000000000000000000000000000000000000000000000000000000602082015250565b60006147b8602183613608565b91506147c38261475c565b604082019050919050565b600060208201905081810360008301526147e7816147ab565b9050919050565b60008190508160005260206000209050919050565b60006020601f8301049050919050565b600082821b905092915050565b6000600883026148507fffffffffffffffffffffffffffffffffffffffffffffffffffffffffffffffff82614813565b61485a8683614813565b95508019841693508086168417925050509392505050565b6000819050919050565b600061489761489261488d84613515565b614872565b613515565b9050919050565b6000819050919050565b6148b18361487c565b6148c56148bd8261489e565b848454614820565b825550505050565b600090565b6148da6148cd565b6148e58184846148a8565b505050565b5b81811015614909576148fe6000826148d2565b6001810190506148eb565b5050565b601f82111561494e5761491f816147ee565b61492884614803565b81016020851015614937578190505b61494b61494385614803565b8301826148ea565b50505b505050565b600082821c905092915050565b600061497160001984600802614953565b1980831691505092915050565b600061498a8383614960565b9150826002028217905092915050565b6149a3826135fd565b67ffffffffffffffff8111156149bc576149bb613a37565b5b6149c68254613f66565b6149d182828561490d565b600060209050601f831160018114614a0457600084156149f2578287015190505b6149fc858261497e565b865550614a64565b601f198416614a12866147ee565b60005b82811015614a3a57848901518255600182019150602085019450602081019050614a15565b86831015614a575784890151614a53601f891682614960565b8355505b6001600288020188555050505b505050505050565b60006040820190508181036000830152614a868185613654565b9050614a9560208301846135d3565b9392505050565b600081519050919050565b600082825260208201905092915050565b6000614ac382614a9c565b614acd8185614aa7565b9350614add818560208601613619565b614ae681613643565b840191505092915050565b6000608082019050614b066000830187613708565b614b136020830186613708565b614b2060408301856135d3565b8181036060830152614b328184614ab8565b905095945050505050565b600081519050614b4c816133cf565b92915050565b600060208284031215614b6857614b67613399565b5b6000614b7684828501614b3d565b91505092915050565b6000604082019050614b946000830185613708565b614ba160208301846135d3565b9392505050565b7f4e487b7100000000000000000000000000000000000000000000000000000000600052601260045260246000fdfea2646970667358221220978fca4a012642e6500bf4a2df71030ac5619854c51485c66d0e87d5e7afaed664736f6c63430008140033",
  "linkReferences": {},
  "deployedLinkReferences": {}
}