{
  "_format": "hh-sol-artifact-1",
  "contractName": "QuantumTicket",
  "sourceName": "contracts/QuantumTicket.sol",
  "abi": [
    {
      "inputs": [],
      "stateMutability": "nonpayable",
      "type": "constructor"
    },
    {
      "inputs": [
        {
          "internalType": "address",
          "name": "sender",
          "type": "address"
        },
        {
          "internalType": "uint256",
          "name": "tokenId",
          "type": "uint256"
        },
        {
          "internalType": "address",
          "name": "owner",
          "type": "address"
        }
      ],
      "name": "ERC721IncorrectOwner",
      "type": "error"
    },
    {
      "inputs": [
        {
          "internalType": "address",
          "name": "operator",
          "type": "address"
        },
        {
          "internalType": "uint256",
          "name": "tokenId",
          "type": "uint256"
        }
      ],
      "name": "ERC721InsufficientApproval",
      "type": "error"
    },
    {
      "inputs": [
        {
          "internalType": "address",
          "name": "approver",
          "type": "address"
        }
      ],
      "name": "ERC721InvalidApprover",
      "type": "error"
    },
    {
      "inputs": [
        {
          "internalType": "address",
          "name": "operator",
          "type": "address"
        }
      ],
      "name": "ERC721InvalidOperator",
      "type": "error"
    },
    {
      "inputs": [
        {
          "internalType": "address",
          "name": "owner",
          "type": "address"
        }
      ],
      "name": "ERC721InvalidOwner",
      "type": "error"
    },
    {
      "inputs": [
        {
          "internalType": "address",
          "name": "receiver",
          "type": "address"
        }
      ],
      "name": "ERC721InvalidReceiver",
      "type": "error"
    },
    {
      "inputs": [
        {
          "internalType": "address",
          "name": "sender",
          "type": "address"
        }
      ],
      "name": "ERC721InvalidSender",
      "type": "error"
    },
    {
      "inputs": [
        {
          "internalType": "uint256",
          "name": "tokenId",
          "type": "uint256"
        }
      ],
      "name": "ERC721NonexistentToken",
      "type": "error"
    },
    {
      "inputs": [],
      "name": "EnforcedPause",
      "type": "error"
    },
    {
      "inputs": [],
      "name": "ExpectedPause",
      "type": "error"
    },
    {
      "inputs": [
        {
          "internalType": "address",
          "name": "owner",
          "type": "address"
        }
      ],
      "name": "OwnableInvalidOwner",
      "type": "error"
    },
    {
      "inputs": [
        {
          "internalType": "address",
          "name": "account",
          "type": "address"
        }
      ],
      "name": "OwnableUnauthorizedAccount",
      "type": "error"
    },
    {
      "inputs": [],
      "name": "ReentrancyGuardReentrantCall",
      "type": "error"
    },
    {
      "anonymous": false,
      "inputs": [
        {
          "indexed": true,
          "internalType": "address",
          "name": "owner",
          "type": "address"
        },
        {
          "indexed": true,
          "internalType": "address",
          "name": "approved",
          "type": "address"
        },
        {
          "indexed": true,
          "internalType": "uint256",
          "name": "tokenId",
          "type": "uint256"
        }
      ],
      "name": "Approval",
      "type": "event"
    },
    {
      "anonymous": false,
      "inputs": [
        {
          "indexed": true,
          "internalType": "address",
          "name": "owner",
          "type": "address"
        },
        {
          "indexed": true,
          "internalType": "address",
          "name": "operator",
          "type": "address"
        },
        {
          "indexed": false,
          "internalType": "bool",
          "name": "approved",
          "type": "bool"
        }
      ],
      "name": "ApprovalForAll",
      "type": "event"
    },
    {
      "anonymous": false,
      "inputs": [
        {
          "indexed": false,
          "internalType": "uint256",
          "name": "_fromTokenId",
          "type": "uint256"
        },
        {
          "indexed": false,
          "internalType": "uint256",
          "name": "_toTokenId",
          "type": "uint256"
        }
      ],
      "name": "BatchMetadataUpdate",
      "type": "event"
    },
    {
      "anonymous": false,
      "inputs": [
        {
          "indexed": true,
          "internalType": "uint256",
          "name": "eventId",
          "type": "uint256"
        },
        {
          "indexed": false,
          "internalType": "string",
          "name": "eventName",
          "type": "string"
        },
        {
          "indexed": true,
          "internalType": "address",
          "name": "organizer",
          "type": "address"
        },
        {
          "indexed": false,
          "internalType": "uint256",
          "name": "ticketPrice",
          "type": "uint256"
        }
      ],
      "name": "EventCreated",
      "type": "event"
    },
    {
      "anonymous": false,
      "inputs": [
        {
          "indexed": true,
          "internalType": "uint256",
          "name": "eventId",
          "type": "uint256"
        }
      ],
      "name": "EventDeactivated",
      "type": "event"
    },
    {
      "anonymous": false,
      "inputs": [
        {
          "indexed": false,
          "internalType": "uint256",
          "name": "_tokenId",
          "type": "uint256"
        }
      ],
      "name": "MetadataUpdate",
      "type": "event"
    },
    {
      "anonymous": false,
      "inputs": [
        {
          "indexed": true,
          "internalType": "address",
          "name": "organizer",
          "type": "address"
        },
        {
          "indexed": false,
          "internalType": "uint256",
          "name": "amount",
          "type": "uint256"
        }
      ],
      "name": "OrganizerWithdrawal",
      "type": "event"
    },
    {
      "anonymous": false,
      "inputs": [
        {
          "indexed": true,
          "internalType": "address",
          "name": "previousOwner",
          "type": "address"
        },
        {
          "indexed": true,
          "internalType": "address",
          "name": "newOwner",
          "type": "address"
        }
      ],
      "name": "OwnershipTransferred",
      "type": "event"
    },
    {
      "anonymous": false,
      "inputs": [
        {
          "indexed": false,
          "internalType": "address",
          "name": "account",
          "type": "address"
        }
      ],
      "name": "Paused",
      "type": "event"
    },
    {
      "anonymous": false,
      "inputs": [
        {
          "indexed": true,
          "internalType": "address",
          "name": "to",
          "type": "address"
        },
        {
          "indexed": false,
          "internalType": "uint256",
          "name": "amount",
          "type": "uint256"
        }
      ],
      "name": "RefundIssued",
      "type": "event"
    },
    {
      "anonymous": false,
      "inputs": [
        {
          "indexed": true,
          "internalType": "uint256",
          "name": "eventId",
          "type": "uint256"
        },
        {
          "indexed": true,
          "internalType": "address",
          "name": "scanner",
          "type": "address"
        },
        {
          "indexed": false,
          "internalType": "bool",
          "name": "allowed",
          "type": "bool"
        }
      ],
      "name": "ScannerUpdated",
      "type": "event"
    },
    {
      "anonymous": false,
      "inputs": [
        {
          "indexed": true,
          "internalType": "address",
          "name": "to",
          "type": "address"
        },
        {
          "indexed": true,
          "internalType": "uint256",
          "name": "tokenId",
          "type": "uint256"
        },
        {
          "indexed": true,
          "internalType": "uint256",
          "name": "eventId",
          "type": "uint256"
        }
      ],
      "name": "TicketMinted",
      "type": "event"
    },
    {
      "anonymous": false,
      "inputs": [
        {
          "indexed": true,
          "internalType": "uint256",
          "name": "tokenId",
          "type": "uint256"
        },
        {
          "indexed": true,
          "internalType": "uint256",
          "name": "eventId",
          "type": "uint256"
        }
      ],
      "name": "TicketUsed",
      "type": "event"
    },
    {
      "anonymous": false,
      "inputs": [
        {
          "indexed": true,
          "internalType": "address",
          "name": "from",
          "type": "address"
        },
        {
          "indexed": true,
          "internalType": "address",
          "name": "to",
          "type": "address"
        },
        {
          "indexed": true,
          "internalType": "uint256",
          "name": "tokenId",
          "type": "uint256"
        }
      ],
      "name": "Transfer",
      "type": "event"
    },
    {
      "anonymous": false,
      "inputs": [
        {
          "indexed": false,
          "internalType": "address",
          "name": "account",
          "type": "address"
        }
      ],
      "name": "Unpaused",
      "type": "event"
    },
    {
      "inputs": [],
      "name": "MAX_PER_WALLET",
      "outputs": [
        {
          "internalType": "uint256",
          "name": "",
          "type": "uint256"
        }
      ],
      "stateMutability": "view",
      "type": "function"
    },
    {
      "inputs": [],
      "name": "PLATFORM_FEE",
      "outputs": [
        {
          "internalType": "uint256",
          "name": "",
          "type": "uint256"
        }
      ],
      "stateMutability": "view",
      "type": "function"
    },
    {
      "inputs": [
        {
          "internalType": "address",
          "name": "to",
          "type": "address"
        },
        {
          "internalType": "uint256",
          "name": "tokenId",
          "type": "uint256"
        }
      ],
      "name": "approve",
      "outputs": [],
      "stateMutability": "nonpayable",
      "type": "function"
    },
    {
      "inputs": [
        {
          "internalType": "address",
          "name": "owner",
          "type": "address"
        }
      ],
      "name": "balanceOf",
      "outputs": [
        {
          "internalType": "uint256",
          "name": "",
          "type": "uint256"
        }
      ],
      "stateMutability": "view",
      "type": "function"
    },
    {
      "inputs": [
        {
          "internalType": "uint256",
          "name": "eventId",
          "type": "uint256"
        },
        {
          "internalType": "string",
          "name": "tokenURI",
          "type": "string"
        }
      ],
      "name": "buyTicket",
      "outputs": [
        {
          "internalType": "uint256",
          "name": "",
          "type": "uint256"
        }
      ],
      "stateMutability": "payable",
      "type": "function"
    },
    {
      "inputs": [
        {
          "internalType": "string",
          "name": "eventName",
          "type": "string"
        },
        {
          "internalType": "uint256",
          "name": "eventDate",
          "type": "uint256"
        },
        {
          "internalType": "uint256",
          "name": "entryOpenTime",
          "type": "uint256"
        },
        {
          "internalType": "string",
          "name": "venue",
          "type": "string"
        },
        {
          "internalType": "uint256",
          "name": "ticketPrice",
          "type": "uint256"
        },
        {
          "internalType": "uint256",
          "name": "maxTickets",
          "type": "uint256"
        },
        {
          "internalType": "string",
          "name": "metadataURI",
          "type": "string"
        }
      ],
      "name": "createEvent",
      "outputs": [
        {
          "internalType": "uint256",
          "name": "",
          "type": "uint256"
        }
      ],
      "stateMutability": "nonpayable",
      "type": "function"
    },
    {
      "inputs": [
        {
          "internalType": "uint256",
          "name": "eventId",
          "type": "uint256"
        }
      ],
      "name": "deactivateEvent",
      "outputs": [],
      "stateMutability": "nonpayable",
      "type": "function"
    },
    {
      "inputs": [
        {
          "internalType": "uint256",
          "name": "",
          "type": "uint256"
        }
      ],
      "name": "events",
      "outputs": [
        {
          "internalType": "uint256",
          "name": "eventId",
          "type": "uint256"
        },
        {
          "internalType": "string",
          "name": "eventName",
          "type": "string"
        },
        {
          "internalType": "uint256",
          "name": "eventDate",
          "type": "uint256"
        },
        {
          "internalType": "uint256",
          "name": "entryOpenTime",
          "type": "uint256"
        },
        {
          "internalType": "string",
          "name": "venue",
          "type": "string"
        },
        {
          "internalType": "uint256",
          "name": "ticketPrice",
          "type": "uint256"
        },
        {
          "internalType": "address",
          "name": "organizer",
          "type": "address"
        },
        {
          "internalType": "uint256",
          "name": "maxTickets",
          "type": "uint256"
        },
        {
          "internalType": "uint256",
          "name": "ticketsSold",
          "type": "uint256"
        },
        {
          "internalType": "bool",
          "name": "isActive",
          "type": "bool"
        },
        {
          "internalType": "string",
          "name": "metadataURI",
          "type": "string"
        }
      ],
      "stateMutability": "view",
      "type": "function"
    },
    {
      "inputs": [
        {
          "internalType": "uint256",
          "name": "tokenId",
          "type": "uint256"
        }
      ],
      "name": "getApproved",
      "outputs": [
        {
          "internalType": "address",
          "name": "",
          "type": "address"
        }
      ],
      "stateMutability": "view",
      "type": "function"
    },
    {
      "inputs": [
        {
          "internalType": "uint256",
          "name": "eventId",
          "type": "uint256"
        }
      ],
      "name": "getEventDetails",
      "outputs": [
        {
          "components": [
            {
              "internalType": "uint256",
              "name": "eventId",
              "type": "uint256"
            },
            {
              "internalType": "string",
              "name": "eventName",
              "type": "string"
            },
            {
              "internalType": "uint256",
              "name": "eventDate",
              "type": "uint256"
            },
            {
              "internalType": "uint256",
              "name": "entryOpenTime",
              "type": "uint256"
            },
            {
              "internalType": "string",
              "name": "venue",
              "type": "string"
            },
            {
              "internalType": "uint256",
              "name": "ticketPrice",
              "type": "uint256"
            },
            {
              "internalType": "address",
              "name": "organizer",
              "type": "address"
            },
            {
              "internalType": "uint256",
              "name": "maxTickets",
              "type": "uint256"
            },
            {
              "internalType": "uint256",
              "name": "ticketsSold",
              "type": "uint256"
            },
            {
              "internalType": "bool",
              "name": "isActive",
              "type": "bool"
            },
            {
              "internalType": "string",
              "name": "metadataURI",
              "type": "string"
            }
          ],
          "internalType": "struct QuantumTicket.Event",
          "name": "",
          "type": "tuple"
        }
      ],
      "stateMutability": "view",
      "type": "function"
    },
    {
      "inputs": [
        {
          "internalType": "uint256",
          "name": "tokenId",
          "type": "uint256"
        }
      ],
      "name": "getTicketDetails",
      "outputs": [
        {
          "internalType": "uint256",
          "name": "eventId",
          "type": "uint256"
        },
        {
          "internalType": "bool",
          "name": "isUsed",
          "type": "bool"
        },
        {
          "components": [
            {
              "internalType": "uint256",
              "name": "eventId",
              "type": "uint256"
            },
            {
              "internalType": "string",
              "name": "eventName",
              "type": "string"
            },
            {
              "internalType": "uint256",
              "name": "eventDate",
              "type": "uint256"
            },
            {
              "internalType": "uint256",
              "name": "entryOpenTime",
              "type": "uint256"
            },
            {
              "internalType": "string",
              "name": "venue",
              "type": "string"
            },
            {
              "internalType": "uint256",
              "name": "ticketPrice",
              "type": "uint256"
            },
            {
              "internalType": "address",
              "name": "organizer",
              "type": "address"
            },
            {
              "internalType": "uint256",
              "name": "maxTickets",
              "type": "uint256"
            },
            {
              "internalType": "uint256",
              "name": "ticketsSold",
              "type": "uint256"
            },
            {
              "internalType": "bool",
              "name": "isActive",
              "type": "bool"
            },
            {
              "internalType": "string",
              "name": "metadataURI",
              "type": "string"
            }
          ],
          "internalType": "struct QuantumTicket.Event",
          "name": "eventDetails",
          "type": "tuple"
        }
      ],
      "stateMutability": "view",
      "type": "function"
    },
    {
      "inputs": [],
      "name": "getTotalEvents",
      "outputs": [
        {
          "internalType": "uint256",
          "name": "",
          "type": "uint256"
        }
      ],
      "stateMutability": "view",
      "type": "function"
    },
    {
      "inputs": [],
      "name": "getTotalTickets",
      "outputs": [
        {
          "internalType": "uint256",
          "name": "",
          "type": "uint256"
        }
      ],
      "stateMutability": "view",
      "type": "function"
    },
    {
      "inputs": [
        {
          "internalType": "address",
          "name": "owner",
          "type": "address"
        },
        {
          "internalType": "address",
          "name": "operator",
          "type": "address"
        }
      ],
      "name": "isApprovedForAll",
      "outputs": [
        {
          "internalType": "bool",
          "name": "",
          "type": "bool"
        }
      ],
      "stateMutability": "view",
      "type": "function"
    },
    {
      "inputs": [],
      "name": "name",
      "outputs": [
        {
          "internalType": "string",
          "name": "",
          "type": "string"
        }
      ],
      "stateMutability": "view",
      "type": "function"
    },
    {
      "inputs": [
        {
          "internalType": "address",
          "name": "",
          "type": "address"
        }
      ],
      "name": "organizerBalances",
      "outputs": [
        {
          "internalType": "uint256",
          "name": "",
          "type": "uint256"
        }
      ],
      "stateMutability": "view",
      "type": "function"
    },
    {
      "inputs": [],
      "name": "owner",
      "outputs": [
        {
          "internalType": "address",
          "name": "",
          "type": "address"
        }
      ],
      "stateMutability": "view",
      "type": "function"
    },
    {
      "inputs": [
        {
          "internalType": "uint256",
          "name": "tokenId",
          "type": "uint256"
        }
      ],
      "name": "ownerOf",
      "outputs": [
        {
          "internalType": "address",
          "name": "",
          "type": "address"
        }
      ],
      "stateMutability": "view",
      "type": "function"
    },
    {
      "inputs": [],
      "name": "pause",
      "outputs": [],
      "stateMutability": "nonpayable",
      "type": "function"
    },
    {
      "inputs": [],
      "name": "paused",
      "outputs": [
        {
          "internalType": "bool",
          "name": "",
          "type": "bool"
        }
      ],
      "stateMutability": "view",
      "type": "function"
    },
    {
      "inputs": [
        {
          "internalType": "uint256",
          "name": "tokenId",
          "type": "uint256"
        }
      ],
      "name": "refundTicket",
      "outputs": [],
      "stateMutability": "nonpayable",
      "type": "function"
    },
    {
      "inputs": [],
      "name": "renounceOwnership",
      "outputs": [],
      "stateMutability": "nonpayable",
      "type": "function"
    },
    {
      "inputs": [
        {
          "internalType": "address",
          "name": "from",
          "type": "address"
        },
        {
          "internalType": "address",
          "name": "to",
          "type": "address"
        },
        {
          "internalType": "uint256",
          "name": "tokenId",
          "type": "uint256"
        }
      ],
      "name": "safeTransferFrom",
      "outputs": [],
      "stateMutability": "nonpayable",
      "type": "function"
    },
    {
      "inputs": [
        {
          "internalType": "address",
          "name": "from",
          "type": "address"
        },
        {
          "internalType": "address",
          "name": "to",
          "type": "address"
        },
        {
          "internalType": "uint256",
          "name": "tokenId",
          "type": "uint256"
        },
        {
          "internalType": "bytes",
          "name": "data",
          "type": "bytes"
        }
      ],
      "name": "safeTransferFrom",
      "outputs": [],
      "stateMutability": "nonpayable",
      "type": "function"
    },
    {
      "inputs": [
        {
          "internalType": "uint256",
          "name": "",
          "type": "uint256"
        },
        {
          "internalType": "address",
          "name": "",
          "type": "address"
        }
      ],
      "name": "scanners",
      "outputs": [
        {
          "internalType": "bool",
          "name": "",
          "type": "bool"
        }
      ],
      "stateMutability": "view",
      "type": "function"
    },
    {
      "inputs": [
        {
          "internalType": "address",
          "name": "operator",
          "type": "address"
        },
        {
          "internalType": "bool",
          "name": "approved",
          "type": "bool"
        }
      ],
      "name": "setApprovalForAll",
      "outputs": [],
      "stateMutability": "nonpayable",
      "type": "function"
    },
    {
      "inputs": [
        {
          "internalType": "uint256",
          "name": "eventId",
          "type": "uint256"
        },
        {
          "internalType": "address",
          "name": "scanner",
          "type": "address"
        },
        {
          "internalType": "bool",
          "name": "allowed",
          "type": "bool"
        }
      ],
      "name": "setScanner",
      "outputs": [],
      "stateMutability": "nonpayable",
      "type": "function"
    },
    {
      "inputs": [
        {
          "internalType": "bytes4",
          "name": "interfaceId",
          "type": "bytes4"
        }
      ],
      "name": "supportsInterface",
      "outputs": [
        {
          "internalType": "bool",
          "name": "",
          "type": "bool"
        }
      ],
      "stateMutability": "view",
      "type": "function"
    },
    {
      "inputs": [],
      "name": "symbol",
      "outputs": [
        {
          "internalType": "string",
          "name": "",
          "type": "string"
        }
      ],
      "stateMutability": "view",
      "type": "function"
    },
    {
      "inputs": [
        {
          "internalType": "uint256",
          "name": "",
          "type": "uint256"
        }
      ],
      "name": "tickets",
      "outputs": [
        {
          "internalType": "uint256",
          "name": "eventId",
          "type": "uint256"
        },
        {
          "internalType": "bool",
          "name": "isUsed",
          "type": "bool"
        }
      ],
      "stateMutability": "view",
      "type": "function"
    },
    {
      "inputs": [
        {
          "internalType": "uint256",
          "name": "",
          "type": "uint256"
        },
        {
          "internalType": "address",
          "name": "",
          "type": "address"
        }
      ],
      "name": "ticketsBought",
      "outputs": [
        {
          "internalType": "uint256",
          "name": "",
          "type": "uint256"
        }
      ],
      "stateMutability": "view",
      "type": "function"
    },
    {
      "inputs": [
        {
          "internalType": "uint256",
          "name": "tokenId",
          "type": "uint256"
        }
      ],
      "name": "tokenURI",
      "outputs": [
        {
          "internalType": "string",
          "name": "",
          "type": "string"
        }
      ],
      "stateMutability": "view",
      "type": "function"
    },
    {
      "inputs": [
        {
          "internalType": "address",
          "name": "from",
          "type": "address"
        },
        {
          "internalType": "address",
          "name": "to",
          "type": "address"
        },
        {
          "internalType": "uint256",
          "name": "tokenId",
          "type": "uint256"
        }
      ],
      "name": "transferFrom",
      "outputs": [],
      "stateMutability": "nonpayable",
      "type": "function"
    },
    {
      "inputs": [
        {
          "internalType": "address",
          "name": "newOwner",
          "type": "address"
        }
      ],
      "name": "transferOwnership",
      "outputs": [],
      "stateMutability": "nonpayable",
      "type": "function"
    },
    {
      "inputs": [],
      "name": "unpause",
      "outputs": [],
      "stateMutability": "nonpayable",
      "type": "function"
    },
    {
      "inputs": [
        {
          "internalType": "uint256",
          "name": "tokenId",
          "type": "uint256"
        }
      ],
      "name": "useTicket",
      "outputs": [],
      "stateMutability": "nonpayable",
      "type": "function"
    },
    {
      "inputs": [],
      "name": "withdrawOrganizerFunds",
      "outputs": [],
      "stateMutability": "nonpayable",
      "type": "function"
    },
    {
      "inputs": [],
      "name": "withdrawPlatformFees",
      "outputs": [],
      "stateMutability": "nonpayable",
      "type": "function"
    }
  ],
  "bytecode": "0x60806040523480156200001157600080fd5b50336040518060400160405280600d81526020017f5175616e74756d5469636b6574000000000000000000000000000000000000008152506040518060400160405280600481526020017f51544b5400000000000000000000000000000000000000000000000000000000815250816000908162000090919062000495565b508060019081620000a2919062000495565b505050600073ffffffffffffffffffffffffffffffffffffffff168173ffffffffffffffffffffffffffffffffffffffff16036200011a5760006040517f1e4fbdf7000000000000000000000000000000000000000000000000000000008152600401620001119190620005c1565b60405180910390fd5b6200012b816200015560201b60201c565b5060016008819055506000600960006101000a81548160ff021916908315150217905550620005de565b6000600760009054906101000a900473ffffffffffffffffffffffffffffffffffffffff16905081600760006101000a81548173ffffffffffffffffffffffffffffffffffffffff021916908373ffffffffffffffffffffffffffffffffffffffff1602179055508173ffffffffffffffffffffffffffffffffffffffff168173ffffffffffffffffffffffffffffffffffffffff167f8be0079c531659141344cd1fd0a4f28419497f9722a3daafe3b4186f6b6457e060405160405180910390a35050565b600081519050919050565b7f4e487b7100000000000000000000000000000000000000000000000000000000600052604160045260246000fd5b7f4e487b7100000000000000000000000000000000000000000000000000000000600052602260045260246000fd5b600060028204905060018216806200029d57607f821691505b602082108103620002b357620002b262000255565b5b50919050565b60008190508160005260206000209050919050565b60006020601f8301049050919050565b600082821b905092915050565b6000600883026200031d7fffffffffffffffffffffffffffffffffffffffffffffffffffffffffffffffff82620002de565b620003298683620002de565b95508019841693508086168417925050509392505050565b6000819050919050565b6000819050919050565b600062000376620003706200036a8462000341565b6200034b565b62000341565b9050919050565b6000819050919050565b620003928362000355565b620003aa620003a1826200037d565b848454620002eb565b825550505050565b600090565b620003c1620003b2565b620003ce81848462000387565b505050565b5b81811015620003f657620003ea600082620003b7565b600181019050620003d4565b5050565b601f82111562000445576200040f81620002b9565b6200041a84620002ce565b810160208510156200042a578190505b620004426200043985620002ce565b830182620003d3565b50505b505050565b600082821c905092915050565b60006200046a600019846008026200044a565b1980831691505092915050565b600062000485838362000457565b9150826002028217905092915050565b620004a0826200021b565b67ffffffffffffffff811115620004bc57620004bb62000226565b5b620004c8825462000284565b620004d5828285620003fa565b600060209050601f8311600181146200050d5760008415620004f8578287015190505b62000504858262000477565b86555062000574565b601f1984166200051d86620002b9565b60005b82811015620005475784890151825560018201915060208501945060208101905062000520565b8683101562000567578489015162000563601f89168262000457565b8355505b6001600288020188555050505b505050505050565b600073ffffffffffffffffffffffffffffffffffffffff82169050919050565b6000620005a9826200057c565b9050919050565b620005bb816200059c565b82525050565b6000602082019050620005d86000830184620005b0565b92915050565b615e8e80620005ee6000396000f3fe6080604052600436106102255760003560e01c80636352211e11610123578063a22cb465116100ab578063c9f6f20d1161006f578063c9f6f20d1461083f578063d0b7830b14610868578063e985e9c51461087f578063ec38d5a0146108bc578063f2fde38b146108f957610225565b8063a22cb46514610736578063a7c1b20e1461075f578063b03805781461079c578063b88d4fde146107d9578063c87b56dd1461080257610225565b80638456cb59116100f25780638456cb59146106705780638da5cb5b14610687578063957a632e146106b257806395d89b41146106db5780639afb93cb1461070657610225565b80636352211e146105b657806370a08231146105f3578063715018a614610630578063757741001461064757610225565b806324c14160116101b157806342842e0e1161017557806342842e0e146104bc578063500f1e4e146104e557806350b44712146105225780635c975abb14610560578063616069401461058b57610225565b806324c14160146103d5578063266064481461041457806328ebc5871461043d57806334fbc9a11461047a5780633f4ba83a146104a557610225565b8063095ea7b3116101f8578063095ea7b3146102fa5780630b791430146103235780630f2cdd6c1461036a57806323771b861461039557806323b872dd146103ac57610225565b806301ffc9a71461022a57806306e8337f1461026757806306fdde0314610292578063081812fc146102bd575b600080fd5b34801561023657600080fd5b50610251600480360381019061024c9190614275565b610922565b60405161025e91906142bd565b60405180910390f35b34801561027357600080fd5b5061027c610934565b60405161028991906142f1565b60405180910390f35b34801561029e57600080fd5b506102a761093e565b6040516102b4919061439c565b60405180910390f35b3480156102c957600080fd5b506102e460048036038101906102df91906143ea565b6109d0565b6040516102f19190614458565b60405180910390f35b34801561030657600080fd5b50610321600480360381019061031c919061449f565b6109ec565b005b34801561032f57600080fd5b5061034a600480360381019061034591906143ea565b610a02565b6040516103619b9a999897969594939291906144df565b60405180910390f35b34801561037657600080fd5b5061037f610c21565b60405161038c91906142f1565b60405180910390f35b3480156103a157600080fd5b506103aa610c26565b005b3480156103b857600080fd5b506103d360048036038101906103ce919061459f565b610e00565b005b3480156103e157600080fd5b506103fc60048036038101906103f791906143ea565b610f02565b60405161040b93929190614766565b60405180910390f35b34801561042057600080fd5b5061043b600480360381019061043691906143ea565b61126f565b005b34801561044957600080fd5b50610464600480360381019061045f91906148d9565b6114ec565b60405161047191906142f1565b60405180910390f35b34801561048657600080fd5b5061048f611894565b60405161049c91906142f1565b60405180910390f35b3480156104b157600080fd5b506104ba61189e565b005b3480156104c857600080fd5b506104e360048036038101906104de919061459f565b6118b0565b005b3480156104f157600080fd5b5061050c600480360381019061050791906149cf565b6118d0565b60405161051991906142f1565b60405180910390f35b34801561052e57600080fd5b50610549600480360381019061054491906143ea565b6118f5565b604051610557929190614a0f565b60405180910390f35b34801561056c57600080fd5b50610575611926565b60405161058291906142bd565b60405180910390f35b34801561059757600080fd5b506105a061193d565b6040516105ad91906142f1565b60405180910390f35b3480156105c257600080fd5b506105dd60048036038101906105d891906143ea565b611947565b6040516105ea9190614458565b60405180910390f35b3480156105ff57600080fd5b5061061a60048036038101906106159190614a38565b611959565b60405161062791906142f1565b60405180910390f35b34801561063c57600080fd5b50610645611a13565b005b34801561065357600080fd5b5061066e600480360381019061066991906143ea565b611a27565b005b34801561067c57600080fd5b50610685611e0f565b005b34801561069357600080fd5b5061069c611e21565b6040516106a99190614458565b60405180910390f35b3480156106be57600080fd5b506106d960048036038101906106d491906143ea565b611e4b565b005b3480156106e757600080fd5b506106f0611f96565b6040516106fd919061439c565b60405180910390f35b610720600480360381019061071b9190614a65565b612028565b60405161072d91906142f1565b60405180910390f35b34801561074257600080fd5b5061075d60048036038101906107589190614aed565b61255c565b005b34801561076b57600080fd5b50610786600480360381019061078191906149cf565b612572565b60405161079391906142bd565b60405180910390f35b3480156107a857600080fd5b506107c360048036038101906107be9190614a38565b6125a1565b6040516107d091906142f1565b60405180910390f35b3480156107e557600080fd5b5061080060048036038101906107fb9190614bce565b6125b9565b005b34801561080e57600080fd5b50610829600480360381019061082491906143ea565b6125de565b604051610836919061439c565b60405180910390f35b34801561084b57600080fd5b5061086660048036038101906108619190614c51565b6126f1565b005b34801561087457600080fd5b5061087d612899565b005b34801561088b57600080fd5b506108a660048036038101906108a19190614ca4565b6129b0565b6040516108b391906142bd565b60405180910390f35b3480156108c857600080fd5b506108e360048036038101906108de91906143ea565b612a44565b6040516108f09190614ce4565b60405180910390f35b34801561090557600080fd5b50610920600480360381019061091b9190614a38565b612d1b565b005b600061092d82612da1565b9050919050565b6000600a54905090565b60606000805461094d90614d35565b80601f016020809104026020016040519081016040528092919081815260200182805461097990614d35565b80156109c65780601f1061099b576101008083540402835291602001916109c6565b820191906000526020600020905b8154815290600101906020018083116109a957829003601f168201915b5050505050905090565b60006109db82612e02565b506109e582612e8a565b9050919050565b6109fe82826109f9612ec7565b612ecf565b5050565b600c602052806000526040600020600091509050806000015490806001018054610a2b90614d35565b80601f0160208091040260200160405190810160405280929190818152602001828054610a5790614d35565b8015610aa45780601f10610a7957610100808354040283529160200191610aa4565b820191906000526020600020905b815481529060010190602001808311610a8757829003601f168201915b505050505090806002015490806003015490806004018054610ac590614d35565b80601f0160208091040260200160405190810160405280929190818152602001828054610af190614d35565b8015610b3e5780601f10610b1357610100808354040283529160200191610b3e565b820191906000526020600020905b815481529060010190602001808311610b2157829003601f168201915b5050505050908060050154908060060160009054906101000a900473ffffffffffffffffffffffffffffffffffffffff16908060070154908060080154908060090160009054906101000a900460ff169080600a018054610b9e90614d35565b80601f0160208091040260200160405190810160405280929190818152602001828054610bca90614d35565b8015610c175780601f10610bec57610100808354040283529160200191610c17565b820191906000526020600020905b815481529060010190602001808311610bfa57829003601f168201915b505050505090508b565b600581565b610c2e612ee1565b6000600e60003373ffffffffffffffffffffffffffffffffffffffff1673ffffffffffffffffffffffffffffffffffffffff16815260200190815260200160002054905060008111610cb5576040517f08c379a0000000000000000000000000000000000000000000000000000000008152600401610cac90614db2565b60405180910390fd5b6000600e60003373ffffffffffffffffffffffffffffffffffffffff1673ffffffffffffffffffffffffffffffffffffffff1681526020019081526020016000208190555060003373ffffffffffffffffffffffffffffffffffffffff1682604051610d2090614e03565b60006040518083038185875af1925050503d8060008114610d5d576040519150601f19603f3d011682016040523d82523d6000602084013e610d62565b606091505b5050905080610da6576040517f08c379a0000000000000000000000000000000000000000000000000000000008152600401610d9d90614e64565b60405180910390fd5b3373ffffffffffffffffffffffffffffffffffffffff167f51e92df9189c3ec54e3e029fe17ad4b4f414c1b658c13c22c41a5375fb8865c783604051610dec91906142f1565b60405180910390a25050610dfe612f27565b565b600073ffffffffffffffffffffffffffffffffffffffff168273ffffffffffffffffffffffffffffffffffffffff1603610e725760006040517f64a0ae92000000000000000000000000000000000000000000000000000000008152600401610e699190614458565b60405180910390fd5b6000610e868383610e81612ec7565b612f31565b90508373ffffffffffffffffffffffffffffffffffffffff168173ffffffffffffffffffffffffffffffffffffffff1614610efc578382826040517f64283d7b000000000000000000000000000000000000000000000000000000008152600401610ef393929190614e84565b60405180910390fd5b50505050565b600080610f0d614197565b600073ffffffffffffffffffffffffffffffffffffffff16610f2e85613038565b73ffffffffffffffffffffffffffffffffffffffff1603610f84576040517f08c379a0000000000000000000000000000000000000000000000000000000008152600401610f7b90614f07565b60405180910390fd5b6000600d6000868152602001908152602001600020604051806040016040529081600082015481526020016001820160009054906101000a900460ff16151515158152505090506000600c600083600001518152602001908152602001600020604051806101600160405290816000820154815260200160018201805461100a90614d35565b80601f016020809104026020016040519081016040528092919081815260200182805461103690614d35565b80156110835780601f1061105857610100808354040283529160200191611083565b820191906000526020600020905b81548152906001019060200180831161106657829003601f168201915b5050505050815260200160028201548152602001600382015481526020016004820180546110b090614d35565b80601f01602080910402602001604051908101604052809291908181526020018280546110dc90614d35565b80156111295780601f106110fe57610100808354040283529160200191611129565b820191906000526020600020905b81548152906001019060200180831161110c57829003601f168201915b50505050508152602001600582015481526020016006820160009054906101000a900473ffffffffffffffffffffffffffffffffffffffff1673ffffffffffffffffffffffffffffffffffffffff1673ffffffffffffffffffffffffffffffffffffffff16815260200160078201548152602001600882015481526020016009820160009054906101000a900460ff16151515158152602001600a820180546111d190614d35565b80601f01602080910402602001604051908101604052809291908181526020018280546111fd90614d35565b801561124a5780601f1061121f5761010080835404028352916020019161124a565b820191906000526020600020905b81548152906001019060200180831161122d57829003601f168201915b5050505050815250509050816000015182602001518294509450945050509193909250565b611277613075565b600073ffffffffffffffffffffffffffffffffffffffff1661129882613038565b73ffffffffffffffffffffffffffffffffffffffff16036112ee576040517f08c379a00000000000000000000000000000000000000000000000000000000081526004016112e590614f07565b60405180910390fd5b6000600d600083815260200190815260200160002090506000600c60008360000154815260200190815260200160002090503373ffffffffffffffffffffffffffffffffffffffff1661134084611947565b73ffffffffffffffffffffffffffffffffffffffff1614806113c05750600f60008360000154815260200190815260200160002060003373ffffffffffffffffffffffffffffffffffffffff1673ffffffffffffffffffffffffffffffffffffffff16815260200190815260200160002060009054906101000a900460ff165b6113ff576040517f08c379a00000000000000000000000000000000000000000000000000000000081526004016113f690614f73565b60405180910390fd5b8160010160009054906101000a900460ff1615611451576040517f08c379a000000000000000000000000000000000000000000000000000000000815260040161144890614fdf565b60405180910390fd5b8060030154421015611498576040517f08c379a000000000000000000000000000000000000000000000000000000000815260040161148f9061504b565b60405180910390fd5b60018260010160006101000a81548160ff0219169083151502179055508160000154837fad0a02848182e7d3a9bb0ae2cc919bdef92f9da6b0a45ced3656cf5443212ede60405160405180910390a3505050565b60006114f6613075565b600088511161153a576040517f08c379a0000000000000000000000000000000000000000000000000000000008152600401611531906150b7565b60405180910390fd5b42871161157c576040517f08c379a000000000000000000000000000000000000000000000000000000000815260040161157390615123565b60405180910390fd5b600084116115bf576040517f08c379a00000000000000000000000000000000000000000000000000000000081526004016115b6906151b5565b60405180910390fd5b60008311611602576040517f08c379a00000000000000000000000000000000000000000000000000000000081526004016115f990615247565b60405180910390fd5b620186a0831115611648576040517f08c379a000000000000000000000000000000000000000000000000000000000815260040161163f906152d9565b60405180910390fd5b6000869050600087148061165c5750878710155b1561167257611c208861166f9190615328565b90505b4281116116b4576040517f08c379a00000000000000000000000000000000000000000000000000000000081526004016116ab906153a8565b60405180910390fd5b6000600b60008154809291906116c9906153c8565b9190505590506040518061016001604052808281526020018b81526020018a81526020018381526020018881526020018781526020013373ffffffffffffffffffffffffffffffffffffffff1681526020018681526020016000815260200160011515815260200185815250600c600083815260200190815260200160002060008201518160000155602082015181600101908161176791906155bc565b506040820151816002015560608201518160030155608082015181600401908161179191906155bc565b5060a0820151816005015560c08201518160060160006101000a81548173ffffffffffffffffffffffffffffffffffffffff021916908373ffffffffffffffffffffffffffffffffffffffff16021790555060e0820151816007015561010082015181600801556101208201518160090160006101000a81548160ff02191690831515021790555061014082015181600a01908161182f91906155bc565b509050503373ffffffffffffffffffffffffffffffffffffffff16817fad389ee79ceb9d0e3a1739d75d42c8727ca5946b701beaa8ef2801b04d7d7a578c8960405161187c92919061568e565b60405180910390a38092505050979650505050505050565b655af3107a400081565b6118a66130b6565b6118ae61313d565b565b6118cb838383604051806020016040528060008152506125b9565b505050565b6010602052816000526040600020602052806000526040600020600091509150505481565b600d6020528060005260406000206000915090508060000154908060010160009054906101000a900460ff16905082565b6000600960009054906101000a900460ff16905090565b6000600b54905090565b600061195282612e02565b9050919050565b60008073ffffffffffffffffffffffffffffffffffffffff168273ffffffffffffffffffffffffffffffffffffffff16036119cc5760006040517f89c62b640000000000000000000000000000000000000000000000000000000081526004016119c39190614458565b60405180910390fd5b600360008373ffffffffffffffffffffffffffffffffffffffff1673ffffffffffffffffffffffffffffffffffffffff168152602001908152602001600020549050919050565b611a1b6130b6565b611a2560006131a0565b565b611a2f612ee1565b600073ffffffffffffffffffffffffffffffffffffffff16611a5082613038565b73ffffffffffffffffffffffffffffffffffffffff1603611aa6576040517f08c379a0000000000000000000000000000000000000000000000000000000008152600401611a9d90614f07565b60405180910390fd5b6000600d600083815260200190815260200160002090506000816000015490506000600c600083815260200190815260200160002090503373ffffffffffffffffffffffffffffffffffffffff168160060160009054906101000a900473ffffffffffffffffffffffffffffffffffffffff1673ffffffffffffffffffffffffffffffffffffffff1614611b6f576040517f08c379a0000000000000000000000000000000000000000000000000000000008152600401611b669061570a565b60405180910390fd5b8260010160009054906101000a900460ff1615611bc1576040517f08c379a0000000000000000000000000000000000000000000000000000000008152600401611bb890614fdf565b60405180910390fd5b6000611bcc85611947565b905060008260050154905080600e60003373ffffffffffffffffffffffffffffffffffffffff1673ffffffffffffffffffffffffffffffffffffffff168152602001908152602001600020541015611c59576040517f08c379a0000000000000000000000000000000000000000000000000000000008152600401611c5090615776565b60405180910390fd5b80600e60003373ffffffffffffffffffffffffffffffffffffffff1673ffffffffffffffffffffffffffffffffffffffff1681526020019081526020016000206000828254611ca89190615328565b92505081905550826008016000815480929190611cc490615796565b9190505550611cd286613266565b600d60008781526020019081526020016000206000808201600090556001820160006101000a81549060ff0219169055505060008273ffffffffffffffffffffffffffffffffffffffff1682604051611d2a90614e03565b60006040518083038185875af1925050503d8060008114611d67576040519150601f19603f3d011682016040523d82523d6000602084013e611d6c565b606091505b5050905080611db0576040517f08c379a0000000000000000000000000000000000000000000000000000000008152600401611da79061580b565b60405180910390fd5b8273ffffffffffffffffffffffffffffffffffffffff167fa171b6942063c6f2800ce40a780edce37baa2b618571b11eedd1e69e626e7d7683604051611df691906142f1565b60405180910390a2505050505050611e0c612f27565b50565b611e176130b6565b611e1f6132ec565b565b6000600760009054906101000a900473ffffffffffffffffffffffffffffffffffffffff16905090565b80600b548110611e90576040517f08c379a0000000000000000000000000000000000000000000000000000000008152600401611e8790615877565b60405180910390fd5b813373ffffffffffffffffffffffffffffffffffffffff16600c600083815260200190815260200160002060060160009054906101000a900473ffffffffffffffffffffffffffffffffffffffff1673ffffffffffffffffffffffffffffffffffffffff1614611f35576040517f08c379a0000000000000000000000000000000000000000000000000000000008152600401611f2c9061570a565b60405180910390fd5b6000600c600085815260200190815260200160002060090160006101000a81548160ff021916908315150217905550827f9bec5b77a290657edefc9defa075c60a874e90f7cc9496853ca9962d58a4ffdd60405160405180910390a2505050565b606060018054611fa590614d35565b80601f0160208091040260200160405190810160405280929190818152602001828054611fd190614d35565b801561201e5780601f10611ff35761010080835404028352916020019161201e565b820191906000526020600020905b81548152906001019060200180831161200157829003601f168201915b5050505050905090565b600082600b54811061206f576040517f08c379a000000000000000000000000000000000000000000000000000000000815260040161206690615877565b60405180910390fd5b612077612ee1565b61207f613075565b6000600c600086815260200190815260200160002090508060090160009054906101000a900460ff166120e7576040517f08c379a00000000000000000000000000000000000000000000000000000000081526004016120de906158e3565b60405180910390fd5b8060070154816008015410612131576040517f08c379a00000000000000000000000000000000000000000000000000000000081526004016121289061594f565b60405180910390fd5b42816002015411612177576040517f08c379a000000000000000000000000000000000000000000000000000000000815260040161216e906159bb565b60405180910390fd5b60056010600087815260200190815260200160002060003373ffffffffffffffffffffffffffffffffffffffff1673ffffffffffffffffffffffffffffffffffffffff168152602001908152602001600020541061220a576040517f08c379a000000000000000000000000000000000000000000000000000000000815260040161220190615a27565b60405180910390fd5b6000655af3107a400082600501546122229190615a47565b905080341015612267576040517f08c379a000000000000000000000000000000000000000000000000000000000815260040161225e90615aed565b60405180910390fd5b600081346122759190615328565b9050600081111561237c5760003373ffffffffffffffffffffffffffffffffffffffff16826040516122a690614e03565b60006040518083038185875af1925050503d80600081146122e3576040519150601f19603f3d011682016040523d82523d6000602084013e6122e8565b606091505b505090508061232c576040517f08c379a000000000000000000000000000000000000000000000000000000000815260040161232390615b59565b60405180910390fd5b3373ffffffffffffffffffffffffffffffffffffffff167fa171b6942063c6f2800ce40a780edce37baa2b618571b11eedd1e69e626e7d768360405161237291906142f1565b60405180910390a2505b8260050154600e60008560060160009054906101000a900473ffffffffffffffffffffffffffffffffffffffff1673ffffffffffffffffffffffffffffffffffffffff1673ffffffffffffffffffffffffffffffffffffffff16815260200190815260200160002060008282546123f39190615a47565b925050819055506010600088815260200190815260200160002060003373ffffffffffffffffffffffffffffffffffffffff1673ffffffffffffffffffffffffffffffffffffffff168152602001908152602001600020600081548092919061245b906153c8565b91905055506000600a6000815480929190612475906153c8565b919050559050612485338261334f565b61248f818861336d565b604051806040016040528089815260200160001515815250600d60008381526020019081526020016000206000820151816000015560208201518160010160006101000a81548160ff0219169083151502179055509050508360080160008154809291906124fc906153c8565b919050555087813373ffffffffffffffffffffffffffffffffffffffff167fcbea9c23945e351434f7ae5b1a435091cc278dd9dd0eba4c04203674014ca7d760405160405180910390a480955050505050612555612f27565b5092915050565b61256e612567612ec7565b83836133c9565b5050565b600f6020528160005260406000206020528060005260406000206000915091509054906101000a900460ff1681565b600e6020528060005260406000206000915090505481565b6125c4848484610e00565b6125d86125cf612ec7565b85858585613538565b50505050565b60606125e982612e02565b50600060066000848152602001908152602001600020805461260a90614d35565b80601f016020809104026020016040519081016040528092919081815260200182805461263690614d35565b80156126835780601f1061265857610100808354040283529160200191612683565b820191906000526020600020905b81548152906001019060200180831161266657829003601f168201915b5050505050905060006126946136e9565b905060008151036126a95781925050506126ec565b6000825111156126de5780826040516020016126c6929190615bb5565b604051602081830303815290604052925050506126ec565b6126e784613700565b925050505b919050565b82600b548110612736576040517f08c379a000000000000000000000000000000000000000000000000000000000815260040161272d90615877565b60405180910390fd5b833373ffffffffffffffffffffffffffffffffffffffff16600c600083815260200190815260200160002060060160009054906101000a900473ffffffffffffffffffffffffffffffffffffffff1673ffffffffffffffffffffffffffffffffffffffff16146127db576040517f08c379a00000000000000000000000000000000000000000000000000000000081526004016127d29061570a565b60405180910390fd5b82600f600087815260200190815260200160002060008673ffffffffffffffffffffffffffffffffffffffff1673ffffffffffffffffffffffffffffffffffffffff16815260200190815260200160002060006101000a81548160ff0219169083151502179055508373ffffffffffffffffffffffffffffffffffffffff16857ff111610a72d1fda78bce6deafb1d544bb15538de516763c59b8cce5b5d533e738560405161288a91906142bd565b60405180910390a35050505050565b6128a16130b6565b6128a9612ee1565b6000479050600081116128f1576040517f08c379a00000000000000000000000000000000000000000000000000000000081526004016128e890615c25565b60405180910390fd5b60006128fb611e21565b73ffffffffffffffffffffffffffffffffffffffff168260405161291e90614e03565b60006040518083038185875af1925050503d806000811461295b576040519150601f19603f3d011682016040523d82523d6000602084013e612960565b606091505b50509050806129a4576040517f08c379a000000000000000000000000000000000000000000000000000000000815260040161299b90615c91565b60405180910390fd5b50506129ae612f27565b565b6000600560008473ffffffffffffffffffffffffffffffffffffffff1673ffffffffffffffffffffffffffffffffffffffff16815260200190815260200160002060008373ffffffffffffffffffffffffffffffffffffffff1673ffffffffffffffffffffffffffffffffffffffff16815260200190815260200160002060009054906101000a900460ff16905092915050565b612a4c614197565b81600b548110612a91576040517f08c379a0000000000000000000000000000000000000000000000000000000008152600401612a8890615877565b60405180910390fd5b600c60008481526020019081526020016000206040518061016001604052908160008201548152602001600182018054612aca90614d35565b80601f0160208091040260200160405190810160405280929190818152602001828054612af690614d35565b8015612b435780601f10612b1857610100808354040283529160200191612b43565b820191906000526020600020905b815481529060010190602001808311612b2657829003601f168201915b505050505081526020016002820154815260200160038201548152602001600482018054612b7090614d35565b80601f0160208091040260200160405190810160405280929190818152602001828054612b9c90614d35565b8015612be95780601f10612bbe57610100808354040283529160200191612be9565b820191906000526020600020905b815481529060010190602001808311612bcc57829003601f168201915b50505050508152602001600582015481526020016006820160009054906101000a900473ffffffffffffffffffffffffffffffffffffffff1673ffffffffffffffffffffffffffffffffffffffff1673ffffffffffffffffffffffffffffffffffffffff16815260200160078201548152602001600882015481526020016009820160009054906101000a900460ff16151515158152602001600a82018054612c9190614d35565b80601f0160208091040260200160405190810160405280929190818152602001828054612cbd90614d35565b8015612d0a5780601f10612cdf57610100808354040283529160200191612d0a565b820191906000526020600020905b815481529060010190602001808311612ced57829003601f168201915b505050505081525050915050919050565b612d236130b6565b600073ffffffffffffffffffffffffffffffffffffffff168173ffffffffffffffffffffffffffffffffffffffff1603612d955760006040517f1e4fbdf7000000000000000000000000000000000000000000000000000000008152600401612d8c9190614458565b60405180910390fd5b612d9e816131a0565b50565b6000634906490660e01b7bffffffffffffffffffffffffffffffffffffffffffffffffffffffff1916827bffffffffffffffffffffffffffffffffffffffffffffffffffffffff19161480612dfb5750612dfa82613769565b5b9050919050565b600080612e0e83613038565b9050600073ffffffffffffffffffffffffffffffffffffffff168173ffffffffffffffffffffffffffffffffffffffff1603612e8157826040517f7e273289000000000000000000000000000000000000000000000000000000008152600401612e7891906142f1565b60405180910390fd5b80915050919050565b60006004600083815260200190815260200160002060009054906101000a900473ffffffffffffffffffffffffffffffffffffffff169050919050565b600033905090565b612edc838383600161384b565b505050565b600260085403612f1d576040517f3ee5aeb500000000000000000000000000000000000000000000000000000000815260040160405180910390fd5b6002600881905550565b6001600881905550565b600080612f3d84613038565b9050600073ffffffffffffffffffffffffffffffffffffffff168173ffffffffffffffffffffffffffffffffffffffff1614158015612fa95750600073ffffffffffffffffffffffffffffffffffffffff168573ffffffffffffffffffffffffffffffffffffffff1614155b15613023576000600d6000868152602001908152602001600020600001549050600c6000828152602001908152602001600020600201544211613021576040517f08c379a000000000000000000000000000000000000000000000000000000000815260040161301890615cfd565b60405180910390fd5b505b61302e858585613a10565b9150509392505050565b60006002600083815260200190815260200160002060009054906101000a900473ffffffffffffffffffffffffffffffffffffffff169050919050565b61307d611926565b156130b4576040517fd93c066500000000000000000000000000000000000000000000000000000000815260040160405180910390fd5b565b6130be612ec7565b73ffffffffffffffffffffffffffffffffffffffff166130dc611e21565b73ffffffffffffffffffffffffffffffffffffffff161461313b576130ff612ec7565b6040517f118cdaa70000000000000000000000000000000000000000000000000000000081526004016131329190614458565b60405180910390fd5b565b613145613c2a565b6000600960006101000a81548160ff0219169083151502179055507f5db9ee0a495bf2e6ff9c91a7834c1ba4fdd244a5e8aa4e537bd38aeae4b073aa613189612ec7565b6040516131969190614458565b60405180910390a1565b6000600760009054906101000a900473ffffffffffffffffffffffffffffffffffffffff16905081600760006101000a81548173ffffffffffffffffffffffffffffffffffffffff021916908373ffffffffffffffffffffffffffffffffffffffff1602179055508173ffffffffffffffffffffffffffffffffffffffff168173ffffffffffffffffffffffffffffffffffffffff167f8be0079c531659141344cd1fd0a4f28419497f9722a3daafe3b4186f6b6457e060405160405180910390a35050565b60006132756000836000612f31565b9050600073ffffffffffffffffffffffffffffffffffffffff168173ffffffffffffffffffffffffffffffffffffffff16036132e857816040517f7e2732890000000000000000000000000000000000000000000000000000000081526004016132df91906142f1565b60405180910390fd5b5050565b6132f4613075565b6001600960006101000a81548160ff0219169083151502179055507f62e78cea01bee320cd4e420270b5ea74000d11b0c9f74754ebdbfc544b05a258613338612ec7565b6040516133459190614458565b60405180910390a1565b613369828260405180602001604052806000815250613c6a565b5050565b8060066000848152602001908152602001600020908161338d91906155bc565b507ff8e1a15aba9398e019f0b49df1a4fde98ee17ae345cb5f6b5e2c27f5033e8ce7826040516133bd91906142f1565b60405180910390a15050565b600073ffffffffffffffffffffffffffffffffffffffff168273ffffffffffffffffffffffffffffffffffffffff160361343a57816040517f5b08ba180000000000000000000000000000000000000000000000000000000081526004016134319190614458565b60405180910390fd5b80600560008573ffffffffffffffffffffffffffffffffffffffff1673ffffffffffffffffffffffffffffffffffffffff16815260200190815260200160002060008473ffffffffffffffffffffffffffffffffffffffff1673ffffffffffffffffffffffffffffffffffffffff16815260200190815260200160002060006101000a81548160ff0219169083151502179055508173ffffffffffffffffffffffffffffffffffffffff168373ffffffffffffffffffffffffffffffffffffffff167f17307eab39ab6107e8899845ad3d59bd9653f200f220920489ca2b5937696c318360405161352b91906142bd565b60405180910390a3505050565b60008373ffffffffffffffffffffffffffffffffffffffff163b11156136e2578273ffffffffffffffffffffffffffffffffffffffff1663150b7a02868685856040518563ffffffff1660e01b81526004016135979493929190615d72565b6020604051808303816000875af19250505080156135d357506040513d601f19601f820116820180604052508101906135d09190615dd3565b60015b613657573d8060008114613603576040519150601f19603f3d011682016040523d82523d6000602084013e613608565b606091505b50600081510361364f57836040517f64a0ae920000000000000000000000000000000000000000000000000000000081526004016136469190614458565b60405180910390fd5b805181602001fd5b63150b7a0260e01b7bffffffffffffffffffffffffffffffffffffffffffffffffffffffff1916817bffffffffffffffffffffffffffffffffffffffffffffffffffffffff1916146136e057836040517f64a0ae920000000000000000000000000000000000000000000000000000000081526004016136d79190614458565b60405180910390fd5b505b5050505050565b606060405180602001604052806000815250905090565b606061370b82612e02565b5060006137166136e9565b905060008151116137365760405180602001604052806000815250613761565b8061374084613c8e565b604051602001613751929190615bb5565b6040516020818303038152906040525b915050919050565b60007f80ac58cd000000000000000000000000000000000000000000000000000000007bffffffffffffffffffffffffffffffffffffffffffffffffffffffff1916827bffffffffffffffffffffffffffffffffffffffffffffffffffffffff1916148061383457507f5b5e139f000000000000000000000000000000000000000000000000000000007bffffffffffffffffffffffffffffffffffffffffffffffffffffffff1916827bffffffffffffffffffffffffffffffffffffffffffffffffffffffff1916145b80613844575061384382613d5c565b5b9050919050565b80806138845750600073ffffffffffffffffffffffffffffffffffffffff168273ffffffffffffffffffffffffffffffffffffffff1614155b156139b857600061389484612e02565b9050600073ffffffffffffffffffffffffffffffffffffffff168373ffffffffffffffffffffffffffffffffffffffff16141580156138ff57508273ffffffffffffffffffffffffffffffffffffffff168173ffffffffffffffffffffffffffffffffffffffff1614155b8015613912575061391081846129b0565b155b1561395457826040517fa9fbf51f00000000000000000000000000000000000000000000000000000000815260040161394b9190614458565b60405180910390fd5b81156139b657838573ffffffffffffffffffffffffffffffffffffffff168273ffffffffffffffffffffffffffffffffffffffff167f8c5be1e5ebec7d5bd14f71427d1e84f3dd0314c0f7b2291e5b200ac8c7c3b92560405160405180910390a45b505b836004600085815260200190815260200160002060006101000a81548173ffffffffffffffffffffffffffffffffffffffff021916908373ffffffffffffffffffffffffffffffffffffffff16021790555050505050565b600080613a1c84613038565b9050600073ffffffffffffffffffffffffffffffffffffffff168373ffffffffffffffffffffffffffffffffffffffff1614613a5e57613a5d818486613dc6565b5b600073ffffffffffffffffffffffffffffffffffffffff168173ffffffffffffffffffffffffffffffffffffffff1614613aef57613aa060008560008061384b565b6001600360008373ffffffffffffffffffffffffffffffffffffffff1673ffffffffffffffffffffffffffffffffffffffff168152602001908152602001600020600082825403925050819055505b600073ffffffffffffffffffffffffffffffffffffffff168573ffffffffffffffffffffffffffffffffffffffff1614613b72576001600360008773ffffffffffffffffffffffffffffffffffffffff1673ffffffffffffffffffffffffffffffffffffffff168152602001908152602001600020600082825401925050819055505b846002600086815260200190815260200160002060006101000a81548173ffffffffffffffffffffffffffffffffffffffff021916908373ffffffffffffffffffffffffffffffffffffffff160217905550838573ffffffffffffffffffffffffffffffffffffffff168273ffffffffffffffffffffffffffffffffffffffff167fddf252ad1be2c89b69c2b068fc378daa952ba7f163c4a11628f55a4df523b3ef60405160405180910390a4809150509392505050565b613c32611926565b613c68576040517f8dfc202b00000000000000000000000000000000000000000000000000000000815260040160405180910390fd5b565b613c748383613e8a565b613c89613c7f612ec7565b6000858585613538565b505050565b606060006001613c9d84613f83565b01905060008167ffffffffffffffff811115613cbc57613cbb6147ae565b5b6040519080825280601f01601f191660200182016040528015613cee5781602001600182028036833780820191505090505b509050600082602001820190505b600115613d51578080600190039150507f3031323334353637383961626364656600000000000000000000000000000000600a86061a8153600a8581613d4557613d44615e00565b5b04945060008503613cfc575b819350505050919050565b60007f01ffc9a7000000000000000000000000000000000000000000000000000000007bffffffffffffffffffffffffffffffffffffffffffffffffffffffff1916827bffffffffffffffffffffffffffffffffffffffffffffffffffffffff1916149050919050565b613dd18383836140d6565b613e8557600073ffffffffffffffffffffffffffffffffffffffff168373ffffffffffffffffffffffffffffffffffffffff1603613e4657806040517f7e273289000000000000000000000000000000000000000000000000000000008152600401613e3d91906142f1565b60405180910390fd5b81816040517f177e802f000000000000000000000000000000000000000000000000000000008152600401613e7c929190615e2f565b60405180910390fd5b505050565b600073ffffffffffffffffffffffffffffffffffffffff168273ffffffffffffffffffffffffffffffffffffffff1603613efc5760006040517f64a0ae92000000000000000000000000000000000000000000000000000000008152600401613ef39190614458565b60405180910390fd5b6000613f0a83836000612f31565b9050600073ffffffffffffffffffffffffffffffffffffffff168173ffffffffffffffffffffffffffffffffffffffff1614613f7e5760006040517f73c6ac6e000000000000000000000000000000000000000000000000000000008152600401613f759190614458565b60405180910390fd5b505050565b600080600090507a184f03e93ff9f4daa797ed6e38ed64bf6a1f0100000000000000008310613fe1577a184f03e93ff9f4daa797ed6e38ed64bf6a1f0100000000000000008381613fd757613fd6615e00565b5b0492506040810190505b6d04ee2d6d415b85acef8100000000831061401e576d04ee2d6d415b85acef8100000000838161401457614013615e00565b5b0492506020810190505b662386f26fc10000831061404d57662386f26fc10000838161404357614042615e00565b5b0492506010810190505b6305f5e1008310614076576305f5e100838161406c5761406b615e00565b5b0492506008810190505b612710831061409b57612710838161409157614090615e00565b5b0492506004810190505b606483106140be57606483816140b4576140b3615e00565b5b0492506002810190505b600a83106140cd576001810190505b80915050919050565b60008073ffffffffffffffffffffffffffffffffffffffff168373ffffffffffffffffffffffffffffffffffffffff161415801561418e57508273ffffffffffffffffffffffffffffffffffffffff168473ffffffffffffffffffffffffffffffffffffffff16148061414f575061414e84846129b0565b5b8061418d57508273ffffffffffffffffffffffffffffffffffffffff1661417583612e8a565b73ffffffffffffffffffffffffffffffffffffffff16145b5b90509392505050565b604051806101600160405280600081526020016060815260200160008152602001600081526020016060815260200160008152602001600073ffffffffffffffffffffffffffffffffffffffff1681526020016000815260200160008152602001600015158152602001606081525090565b6000604051905090565b600080fd5b600080fd5b60007fffffffff0000000000000000000000000000000000000000000000000000000082169050919050565b6142528161421d565b811461425d57600080fd5b50565b60008135905061426f81614249565b92915050565b60006020828403121561428b5761428a614213565b5b600061429984828501614260565b91505092915050565b60008115159050919050565b6142b7816142a2565b82525050565b60006020820190506142d260008301846142ae565b92915050565b6000819050919050565b6142eb816142d8565b82525050565b600060208201905061430660008301846142e2565b92915050565b600081519050919050565b600082825260208201905092915050565b60005b8381101561434657808201518184015260208101905061432b565b60008484015250505050565b6000601f19601f8301169050919050565b600061436e8261430c565b6143788185614317565b9350614388818560208601614328565b61439181614352565b840191505092915050565b600060208201905081810360008301526143b68184614363565b905092915050565b6143c7816142d8565b81146143d257600080fd5b50565b6000813590506143e4816143be565b92915050565b600060208284031215614400576143ff614213565b5b600061440e848285016143d5565b91505092915050565b600073ffffffffffffffffffffffffffffffffffffffff82169050919050565b600061444282614417565b9050919050565b61445281614437565b82525050565b600060208201905061446d6000830184614449565b92915050565b61447c81614437565b811461448757600080fd5b50565b60008135905061449981614473565b92915050565b600080604083850312156144b6576144b5614213565b5b60006144c48582860161448a565b92505060206144d5858286016143d5565b9150509250929050565b6000610160820190506144f5600083018e6142e2565b8181036020830152614507818d614363565b9050614516604083018c6142e2565b614523606083018b6142e2565b8181036080830152614535818a614363565b905061454460a08301896142e2565b61455160c0830188614449565b61455e60e08301876142e2565b61456c6101008301866142e2565b61457a6101208301856142ae565b81810361014083015261458d8184614363565b90509c9b505050505050505050505050565b6000806000606084860312156145b8576145b7614213565b5b60006145c68682870161448a565b93505060206145d78682870161448a565b92505060406145e8868287016143d5565b9150509250925092565b6145fb816142d8565b82525050565b600082825260208201905092915050565b600061461d8261430c565b6146278185614601565b9350614637818560208601614328565b61464081614352565b840191505092915050565b61465481614437565b82525050565b614663816142a2565b82525050565b60006101608301600083015161468260008601826145f2565b506020830151848203602086015261469a8282614612565b91505060408301516146af60408601826145f2565b5060608301516146c260608601826145f2565b50608083015184820360808601526146da8282614612565b91505060a08301516146ef60a08601826145f2565b5060c083015161470260c086018261464b565b5060e083015161471560e08601826145f2565b5061010083015161472a6101008601826145f2565b5061012083015161473f61012086018261465a565b506101408301518482036101408601526147598282614612565b9150508091505092915050565b600060608201905061477b60008301866142e2565b61478860208301856142ae565b818103604083015261479a8184614669565b9050949350505050565b600080fd5b600080fd5b7f4e487b7100000000000000000000000000000000000000000000000000000000600052604160045260246000fd5b6147e682614352565b810181811067ffffffffffffffff82111715614805576148046147ae565b5b80604052505050565b6000614818614209565b905061482482826147dd565b919050565b600067ffffffffffffffff821115614844576148436147ae565b5b61484d82614352565b9050602081019050919050565b82818337600083830152505050565b600061487c61487784614829565b61480e565b905082815260208101848484011115614898576148976147a9565b5b6148a384828561485a565b509392505050565b600082601f8301126148c0576148bf6147a4565b5b81356148d0848260208601614869565b91505092915050565b600080600080600080600060e0888a0312156148f8576148f7614213565b5b600088013567ffffffffffffffff81111561491657614915614218565b5b6149228a828b016148ab565b97505060206149338a828b016143d5565b96505060406149448a828b016143d5565b955050606088013567ffffffffffffffff81111561496557614964614218565b5b6149718a828b016148ab565b94505060806149828a828b016143d5565b93505060a06149938a828b016143d5565b92505060c088013567ffffffffffffffff8111156149b4576149b3614218565b5b6149c08a828b016148ab565b91505092959891949750929550565b600080604083850312156149e6576149e5614213565b5b60006149f4858286016143d5565b9250506020614a058582860161448a565b9150509250929050565b6000604082019050614a2460008301856142e2565b614a3160208301846142ae565b9392505050565b600060208284031215614a4e57614a4d614213565b5b6000614a5c8482850161448a565b91505092915050565b60008060408385031215614a7c57614a7b614213565b5b6000614a8a858286016143d5565b925050602083013567ffffffffffffffff811115614aab57614aaa614218565b5b614ab7858286016148ab565b9150509250929050565b614aca816142a2565b8114614ad557600080fd5b50565b600081359050614ae781614ac1565b92915050565b60008060408385031215614b0457614b03614213565b5b6000614b128582860161448a565b9250506020614b2385828601614ad8565b9150509250929050565b600067ffffffffffffffff821115614b4857614b476147ae565b5b614b5182614352565b9050602081019050919050565b6000614b71614b6c84614b2d565b61480e565b905082815260208101848484011115614b8d57614b8c6147a9565b5b614b9884828561485a565b509392505050565b600082601f830112614bb557614bb46147a4565b5b8135614bc5848260208601614b5e565b91505092915050565b60008060008060808587031215614be857614be7614213565b5b6000614bf68782880161448a565b9450506020614c078782880161448a565b9350506040614c18878288016143d5565b925050606085013567ffffffffffffffff811115614c3957614c38614218565b5b614c4587828801614ba0565b91505092959194509250565b600080600060608486031215614c6a57614c69614213565b5b6000614c78868287016143d5565b9350506020614c898682870161448a565b9250506040614c9a86828701614ad8565b9150509250925092565b60008060408385031215614cbb57614cba614213565b5b6000614cc98582860161448a565b9250506020614cda8582860161448a565b9150509250929050565b60006020820190508181036000830152614cfe8184614669565b905092915050565b7f4e487b7100000000000000000000000000000000000000000000000000000000600052602260045260246000fd5b60006002820490506001821680614d4d57607f821691505b602082108103614d6057614d5f614d06565b5b50919050565b7f4e6f7468696e6720746f20776974686472617700000000000000000000000000600082015250565b6000614d9c601383614317565b9150614da782614d66565b602082019050919050565b60006020820190508181036000830152614dcb81614d8f565b9050919050565b600081905092915050565b50565b6000614ded600083614dd2565b9150614df882614ddd565b600082019050919050565b6000614e0e82614de0565b9150819050919050565b7f5769746864726177206661696c65640000000000000000000000000000000000600082015250565b6000614e4e600f83614317565b9150614e5982614e18565b602082019050919050565b60006020820190508181036000830152614e7d81614e41565b9050919050565b6000606082019050614e996000830186614449565b614ea660208301856142e2565b614eb36040830184614449565b949350505050565b7f5469636b657420646f6573206e6f742065786973740000000000000000000000600082015250565b6000614ef1601583614317565b9150614efc82614ebb565b602082019050919050565b60006020820190508181036000830152614f2081614ee4565b9050919050565b7f4e6f74207469636b6574206f776e6572206f72207363616e6e65720000000000600082015250565b6000614f5d601b83614317565b9150614f6882614f27565b602082019050919050565b60006020820190508181036000830152614f8c81614f50565b9050919050565b7f5469636b657420616c7265616479207573656400000000000000000000000000600082015250565b6000614fc9601383614317565b9150614fd482614f93565b602082019050919050565b60006020820190508181036000830152614ff881614fbc565b9050919050565b7f456e747279206e6f7420796574206f70656e0000000000000000000000000000600082015250565b6000615035601283614317565b915061504082614fff565b602082019050919050565b6000602082019050818103600083015261506481615028565b9050919050565b7f4576656e74206e616d652063616e6e6f7420626520656d707479000000000000600082015250565b60006150a1601a83614317565b91506150ac8261506b565b602082019050919050565b600060208201905081810360008301526150d081615094565b9050919050565b7f4576656e742064617465206d75737420626520696e2074686520667574757265600082015250565b600061510d602083614317565b9150615118826150d7565b602082019050919050565b6000602082019050818103600083015261513c81615100565b9050919050565b7f5469636b6574207072696365206d75737420626520677265617465722074686160008201527f6e20300000000000000000000000000000000000000000000000000000000000602082015250565b600061519f602383614317565b91506151aa82615143565b604082019050919050565b600060208201905081810360008301526151ce81615192565b9050919050565b7f4d6178207469636b657473206d7573742062652067726561746572207468616e60008201527f2030000000000000000000000000000000000000000000000000000000000000602082015250565b6000615231602283614317565b915061523c826151d5565b604082019050919050565b6000602082019050818103600083015261526081615224565b9050919050565b7f4d6178207469636b6574732063616e6e6f7420657863656564203130302c303060008201527f3000000000000000000000000000000000000000000000000000000000000000602082015250565b60006152c3602183614317565b91506152ce82615267565b604082019050919050565b600060208201905081810360008301526152f2816152b6565b9050919050565b7f4e487b7100000000000000000000000000000000000000000000000000000000600052601160045260246000fd5b6000615333826142d8565b915061533e836142d8565b9250828203905081811115615356576153556152f9565b5b92915050565b7f456e7472792074696d65206d75737420626520696e2074686520667574757265600082015250565b6000615392602083614317565b915061539d8261535c565b602082019050919050565b600060208201905081810360008301526153c181615385565b9050919050565b60006153d3826142d8565b91507fffffffffffffffffffffffffffffffffffffffffffffffffffffffffffffffff8203615405576154046152f9565b5b600182019050919050565b60008190508160005260206000209050919050565b60006020601f8301049050919050565b600082821b905092915050565b6000600883026154727fffffffffffffffffffffffffffffffffffffffffffffffffffffffffffffffff82615435565b61547c8683615435565b95508019841693508086168417925050509392505050565b6000819050919050565b60006154b96154b46154af846142d8565b615494565b6142d8565b9050919050565b6000819050919050565b6154d38361549e565b6154e76154df826154c0565b848454615442565b825550505050565b600090565b6154fc6154ef565b6155078184846154ca565b505050565b5b8181101561552b576155206000826154f4565b60018101905061550d565b5050565b601f8211156155705761554181615410565b61554a84615425565b81016020851015615559578190505b61556d61556585615425565b83018261550c565b50505b505050565b600082821c905092915050565b600061559360001984600802615575565b1980831691505092915050565b60006155ac8383615582565b9150826002028217905092915050565b6155c58261430c565b67ffffffffffffffff8111156155de576155dd6147ae565b5b6155e88254614d35565b6155f382828561552f565b600060209050601f8311600181146156265760008415615614578287015190505b61561e85826155a0565b865550615686565b601f19841661563486615410565b60005b8281101561565c57848901518255600182019150602085019450602081019050615637565b868310156156795784890151615675601f891682615582565b8355505b6001600288020188555050505b505050505050565b600060408201905081810360008301526156a88185614363565b90506156b760208301846142e2565b9392505050565b7f4e6f74206576656e74206f7267616e697a657200000000000000000000000000600082015250565b60006156f4601383614317565b91506156ff826156be565b602082019050919050565b60006020820190508181036000830152615723816156e7565b9050919050565b7f496e73756666696369656e742062616c616e636520666f7220726566756e6400600082015250565b6000615760601f83614317565b915061576b8261572a565b602082019050919050565b6000602082019050818103600083015261578f81615753565b9050919050565b60006157a1826142d8565b9150600082036157b4576157b36152f9565b5b600182039050919050565b7f526566756e64206661696c656400000000000000000000000000000000000000600082015250565b60006157f5600d83614317565b9150615800826157bf565b602082019050919050565b60006020820190508181036000830152615824816157e8565b9050919050565b7f4576656e7420646f6573206e6f74206578697374000000000000000000000000600082015250565b6000615861601483614317565b915061586c8261582b565b602082019050919050565b6000602082019050818103600083015261589081615854565b9050919050565b7f4576656e74206973206e6f742061637469766500000000000000000000000000600082015250565b60006158cd601383614317565b91506158d882615897565b602082019050919050565b600060208201905081810360008301526158fc816158c0565b9050919050565b7f4576656e7420697320736f6c64206f7574000000000000000000000000000000600082015250565b6000615939601183614317565b915061594482615903565b602082019050919050565b600060208201905081810360008301526159688161592c565b9050919050565b7f4576656e742068617320616c7265616479207061737365640000000000000000600082015250565b60006159a5601883614317565b91506159b08261596f565b602082019050919050565b600060208201905081810360008301526159d481615998565b9050919050565b7f5075726368617365206c696d6974207265616368656400000000000000000000600082015250565b6000615a11601683614317565b9150615a1c826159db565b602082019050919050565b60006020820190508181036000830152615a4081615a04565b9050919050565b6000615a52826142d8565b9150615a5d836142d8565b9250828201905080821115615a7557615a746152f9565b5b92915050565b7f496e73756666696369656e74207061796d656e7420666f72207469636b65742060008201527f616e6420706c6174666f726d2066656500000000000000000000000000000000602082015250565b6000615ad7603083614317565b9150615ae282615a7b565b604082019050919050565b60006020820190508181036000830152615b0681615aca565b9050919050565b7f45786365737320726566756e64206661696c6564000000000000000000000000600082015250565b6000615b43601483614317565b9150615b4e82615b0d565b602082019050919050565b60006020820190508181036000830152615b7281615b36565b9050919050565b600081905092915050565b6000615b8f8261430c565b615b998185615b79565b9350615ba9818560208601614328565b80840191505092915050565b6000615bc18285615b84565b9150615bcd8284615b84565b91508190509392505050565b7f4e6f20706c6174666f726d206665657320746f20776974686472617700000000600082015250565b6000615c0f601c83614317565b9150615c1a82615bd9565b602082019050919050565b60006020820190508181036000830152615c3e81615c02565b9050919050565b7f506c6174666f726d207769746864726177616c206661696c6564000000000000600082015250565b6000615c7b601a83614317565b9150615c8682615c45565b602082019050919050565b60006020820190508181036000830152615caa81615c6e565b9050919050565b7f5472616e73666572732064697361626c6564206265666f7265206576656e7400600082015250565b6000615ce7601f83614317565b9150615cf282615cb1565b602082019050919050565b60006020820190508181036000830152615d1681615cda565b9050919050565b600081519050919050565b600082825260208201905092915050565b6000615d4482615d1d565b615d4e8185615d28565b9350615d5e818560208601614328565b615d6781614352565b840191505092915050565b6000608082019050615d876000830187614449565b615d946020830186614449565b615da160408301856142e2565b8181036060830152615db38184615d39565b905095945050505050565b600081519050615dcd81614249565b92915050565b600060208284031215615de957615de8614213565b5b6000615df784828501615dbe565b91505092915050565b7f4e487b7100000000000000000000000000000000000000000000000000000000600052601260045260246000fd5b6000604082019050615e446000830185614449565b615e5160208301846142e2565b939250505056fea264697066735822122014f723190ecd09b4149fd3553cde28f51d26465736104e3ed24ecb0f7a98ca8c64736f6c63430008140033",
  "linkReferences": {},
  "deployedLinkReferences": {}
}